{
  "contractName": "AdList",
  "abi": [
    {
      "constant": true,
      "inputs": [
        {
          "name": "",
          "type": "uint256"
        }
      ],
      "name": "slike",
      "outputs": [
        {
          "name": "adName",
          "type": "string"
        },
        {
          "name": "adOwner",
          "type": "string"
        },
        {
          "name": "hash",
          "type": "string"
        }
      ],
      "payable": false,
      "stateMutability": "view",
      "type": "function",
      "signature": "0x03831f53"
    },
    {
      "constant": true,
      "inputs": [
        {
          "name": "",
          "type": "uint256"
        }
      ],
      "name": "ads",
      "outputs": [
        {
          "name": "name",
          "type": "string"
        },
        {
          "name": "category",
          "type": "string"
        },
        {
          "name": "description",
          "type": "string"
        },
        {
          "name": "price",
          "type": "string"
        },
        {
          "name": "contact",
          "type": "string"
        },
        {
          "name": "korisnik",
          "type": "string"
        },
        {
          "name": "picHash",
          "type": "string"
        }
      ],
      "payable": false,
      "stateMutability": "view",
      "type": "function",
      "signature": "0x11a7a4c0"
    },
    {
      "constant": true,
      "inputs": [],
      "name": "slikeCount",
      "outputs": [
        {
          "name": "",
          "type": "uint256"
        }
      ],
      "payable": false,
      "stateMutability": "view",
      "type": "function",
      "signature": "0x836e70a6"
    },
    {
      "constant": true,
      "inputs": [],
      "name": "adCount",
      "outputs": [
        {
          "name": "",
          "type": "uint256"
        }
      ],
      "payable": false,
      "stateMutability": "view",
      "type": "function",
      "signature": "0x9c89dcf3"
    },
    {
      "inputs": [],
      "payable": false,
      "stateMutability": "nonpayable",
      "type": "constructor",
      "signature": "constructor"
    },
    {
      "anonymous": false,
      "inputs": [
        {
          "indexed": false,
          "name": "adName",
          "type": "string"
        },
        {
          "indexed": false,
          "name": "adNumber",
          "type": "uint256"
        }
      ],
      "name": "AdCreated",
      "type": "event",
      "signature": "0x3286b1da6085390e00485429ed37f82735bd88bcf479b24d32dca7e1375c5a1e"
    },
    {
      "constant": false,
      "inputs": [
        {
          "name": "_name",
          "type": "string"
        },
        {
          "name": "_category",
          "type": "string"
        },
        {
          "name": "_description",
          "type": "string"
        },
        {
          "name": "_price",
          "type": "string"
        },
        {
          "name": "_contact",
          "type": "string"
        },
        {
          "name": "_user",
          "type": "string"
        },
        {
          "name": "pic",
          "type": "string"
        },
        {
          "name": "userCrudAdrdess",
          "type": "address"
        }
      ],
      "name": "createAd",
      "outputs": [],
      "payable": false,
      "stateMutability": "nonpayable",
      "type": "function",
      "signature": "0xf9134dc4"
    },
    {
      "constant": false,
      "inputs": [
        {
          "name": "_name",
          "type": "string"
        },
        {
          "name": "_user",
          "type": "string"
        }
      ],
      "name": "removeAd",
      "outputs": [],
      "payable": false,
      "stateMutability": "nonpayable",
      "type": "function",
      "signature": "0x5b731319"
    },
    {
      "constant": false,
      "inputs": [
        {
          "name": "adName",
          "type": "string"
        },
        {
          "name": "adOwner",
          "type": "string"
        },
        {
          "name": "hash",
          "type": "string"
        }
      ],
      "name": "addPic",
      "outputs": [],
      "payable": false,
      "stateMutability": "nonpayable",
      "type": "function",
      "signature": "0x8980f837"
    }
  ],
  "bytecode": "0x60806040523480156200001157600080fd5b5060e0604051908101604052806040805190810160405280600a81526020017f486f7274656e7a696a650000000000000000000000000000000000000000000081525081526020016040805190810160405280600581526020017f43766563650000000000000000000000000000000000000000000000000000008152508152602001606060405190810160405280602181526020017f5361646e696365207374617265203220676f64696e652c207669736520626f6a81526020017f610000000000000000000000000000000000000000000000000000000000000081525081526020016040805190810160405280600381526020017f383030000000000000000000000000000000000000000000000000000000000081525081526020016040805190810160405280600a81526020017f303631353633323434380000000000000000000000000000000000000000000081525081526020016040805190810160405280600a81526020017f4376656361726b6137370000000000000000000000000000000000000000000081525081526020016040805190810160405280601781526020017f31363230363632333932323433696d616765312e706e6700000000000000000081525081525060026000808152602001908152602001600020600082015181600001908051906020019062000211929190620035bf565b50602082015181600101908051906020019062000230929190620035bf565b5060408201518160020190805190602001906200024f929190620035bf565b5060608201518160030190805190602001906200026e929190620035bf565b5060808201518160040190805190602001906200028d929190620035bf565b5060a0820151816005019080519060200190620002ac929190620035bf565b5060c0820151816006019080519060200190620002cb929190620035bf565b5090505060e0604051908101604052806040805190810160405280600881526020017f5376657a206d656400000000000000000000000000000000000000000000000081525081526020016040805190810160405280600381526020017f4d656400000000000000000000000000000000000000000000000000000000008152508152602001606060405190810160405280602681526020017f446f6d616369206d65642c2062616772656d6f762c206c69766164736b692c2081526020017f73756d736b69000000000000000000000000000000000000000000000000000081525081526020016040805190810160405280600381526020017f373030000000000000000000000000000000000000000000000000000000000081525081526020016040805190810160405280600a81526020017f303636313439333336350000000000000000000000000000000000000000000081525081526020016040805190810160405280600b81526020017f5063656c6963614d616a6100000000000000000000000000000000000000000081525081526020016040805190810160405280601781526020017f31363230363632343235313230696d616765322e706e6700000000000000000081525081525060026000600181526020019081526020016000206000820151816000019080519060200190620004cf929190620035bf565b506020820151816001019080519060200190620004ee929190620035bf565b5060408201518160020190805190602001906200050d929190620035bf565b5060608201518160030190805190602001906200052c929190620035bf565b5060808201518160040190805190602001906200054b929190620035bf565b5060a08201518160050190805190602001906200056a929190620035bf565b5060c082015181600601908051906020019062000589929190620035bf565b5090505060e0604051908101604052806040805190810160405280600c81526020017f506f736e69206b6f6c616369000000000000000000000000000000000000000081525081526020016040805190810160405280600881526020017f536c61746b6973690000000000000000000000000000000000000000000000008152508152602001606060405190810160405280603781526020017f5369746e69206b6f6c6163692c20696465616c6e69207a612070726f736c617681526020017f652c20372076727374612c202063656e6120706f206b6700000000000000000081525081526020016040805190810160405280600381526020017f383030000000000000000000000000000000000000000000000000000000000081525081526020016040805190810160405280600a81526020017f303633353536323339350000000000000000000000000000000000000000000081525081526020016040805190810160405280600981526020017f53656365726c656d61000000000000000000000000000000000000000000000081525081526020016040805190810160405280601781526020017f31363230363632343332353633696d616765332e706e67000000000000000000815250815250600260006002815260200190815260200160002060008201518160000190805190602001906200078d929190620035bf565b506020820151816001019080519060200190620007ac929190620035bf565b506040820151816002019080519060200190620007cb929190620035bf565b506060820151816003019080519060200190620007ea929190620035bf565b50608082015181600401908051906020019062000809929190620035bf565b5060a082015181600501908051906020019062000828929190620035bf565b5060c082015181600601908051906020019062000847929190620035bf565b5090505060e0604051908101604052806040805190810160405280600f81526020017f506174756c6a617374652072757a65000000000000000000000000000000000081525081526020016040805190810160405280600581526020017f43766563650000000000000000000000000000000000000000000000000000008152508152602001606060405190810160405280602381526020017f5361646e69636520706174756c6a61737469682072757a612c2076697365206281526020017f6f6a61000000000000000000000000000000000000000000000000000000000081525081526020016040805190810160405280600381526020017f353030000000000000000000000000000000000000000000000000000000000081525081526020016040805190810160405280600a81526020017f303631353633323434380000000000000000000000000000000000000000000081525081526020016040805190810160405280600a81526020017f4376656361726b6137370000000000000000000000000000000000000000000081525081526020016040805190810160405280601781526020017f31363230363632343431303233696d616765342e706e670000000000000000008152508152506002600060038152602001908152602001600020600082015181600001908051906020019062000a4b929190620035bf565b50602082015181600101908051906020019062000a6a929190620035bf565b50604082015181600201908051906020019062000a89929190620035bf565b50606082015181600301908051906020019062000aa8929190620035bf565b50608082015181600401908051906020019062000ac7929190620035bf565b5060a082015181600501908051906020019062000ae6929190620035bf565b5060c082015181600601908051906020019062000b05929190620035bf565b5090505060e0604051908101604052806040805190810160405280600e81526020017f4d65726c6f742076696e6f20324c00000000000000000000000000000000000081525081526020016040805190810160405280600481526020017f56696e6f000000000000000000000000000000000000000000000000000000008152508152602001606060405190810160405280602581526020017f4e616a6b76616c697465746e696a65207520537262696a692c2070756e6f672081526020017f756b75736100000000000000000000000000000000000000000000000000000081525081526020016040805190810160405280600381526020017f333030000000000000000000000000000000000000000000000000000000000081525081526020016040805190810160405280600a81526020017f303639323334383836310000000000000000000000000000000000000000000081525081526020016040805190810160405280600b81526020017f42757265427572656e636500000000000000000000000000000000000000000081525081526020016040805190810160405280601781526020017f31363230363632343438373533696d616765352e706e670000000000000000008152508152506002600060048152602001908152602001600020600082015181600001908051906020019062000d09929190620035bf565b50602082015181600101908051906020019062000d28929190620035bf565b50604082015181600201908051906020019062000d47929190620035bf565b50606082015181600301908051906020019062000d66929190620035bf565b50608082015181600401908051906020019062000d85929190620035bf565b5060a082015181600501908051906020019062000da4929190620035bf565b5060c082015181600601908051906020019062000dc3929190620035bf565b5090505060e0604051908101604052806040805190810160405280600d81526020017f446f6d616369206376617263690000000000000000000000000000000000000081525081526020016040805190810160405280601981526020017f4d65736f2069206d65736e65207072657261646a6576696e650000000000000081525081526020016040805190810160405280601f81526020017f4872736b6176692c646f6d616369206376617263692035353064696e2f6b670081525081526020016040805190810160405280600381526020017f353530000000000000000000000000000000000000000000000000000000000081525081526020016040805190810160405280600a81526020017f303634313530323235360000000000000000000000000000000000000000000081525081526020016040805190810160405280600881526020017f43696b614d69736100000000000000000000000000000000000000000000000081525081526020016040805190810160405280601781526020017f31363230363632343537393137696d616765362e706e670000000000000000008152508152506002600060058152602001908152602001600020600082015181600001908051906020019062000fa0929190620035bf565b50602082015181600101908051906020019062000fbf929190620035bf565b50604082015181600201908051906020019062000fde929190620035bf565b50606082015181600301908051906020019062000ffd929190620035bf565b5060808201518160040190805190602001906200101c929190620035bf565b5060a08201518160050190805190602001906200103b929190620035bf565b5060c08201518160060190805190602001906200105a929190620035bf565b5090505060e0604051908101604052806040805190810160405280601181526020017f54616d6a616e696b612076696e6f20324c00000000000000000000000000000081525081526020016040805190810160405280600481526020017f56696e6f000000000000000000000000000000000000000000000000000000008152508152602001606060405190810160405280603981526020017f50726f766572656e6f206e616a6b76616c697465746e696a652062656c6f207681526020017f696e6f207520537262696a692c2070756e6f6720756b7573610000000000000081525081526020016040805190810160405280600381526020017f343030000000000000000000000000000000000000000000000000000000000081525081526020016040805190810160405280600a81526020017f303639323334383836310000000000000000000000000000000000000000000081525081526020016040805190810160405280600b81526020017f42757265427572656e636500000000000000000000000000000000000000000081525081526020016040805190810160405280601781526020017f31363230363632343636343237696d616765372e706e67000000000000000000815250815250600260006006815260200190815260200160002060008201518160000190805190602001906200125e929190620035bf565b5060208201518160010190805190602001906200127d929190620035bf565b5060408201518160020190805190602001906200129c929190620035bf565b506060820151816003019080519060200190620012bb929190620035bf565b506080820151816004019080519060200190620012da929190620035bf565b5060a0820151816005019080519060200190620012f9929190620035bf565b5060c082015181600601908051906020019062001318929190620035bf565b5090505060e0604051908101604052806040805190810160405280600d81526020017f536c6a69766f7669636120314c0000000000000000000000000000000000000081525081526020016040805190810160405280600681526020017f52616b696a6100000000000000000000000000000000000000000000000000008152508152602001606060405190810160405280602f81526020017f5069746b612c206f737472612c20646f6d6163612072616b696a61206f64207381526020017f6c6a6976652c2035303064696e2f6c000000000000000000000000000000000081525081526020016040805190810160405280600381526020017f353030000000000000000000000000000000000000000000000000000000000081525081526020016040805190810160405280600a81526020017f303635323234353839360000000000000000000000000000000000000000000081525081526020016040805190810160405280600e81526020017f446164696c6a61536c6a69766b6100000000000000000000000000000000000081525081526020016040805190810160405280601781526020017f31363230363632343733343033696d616765382e706e67000000000000000000815250815250600260006007815260200190815260200160002060008201518160000190805190602001906200151c929190620035bf565b5060208201518160010190805190602001906200153b929190620035bf565b5060408201518160020190805190602001906200155a929190620035bf565b50606082015181600301908051906020019062001579929190620035bf565b50608082015181600401908051906020019062001598929190620035bf565b5060a0820151816005019080519060200190620015b7929190620035bf565b5060c0820151816006019080519060200190620015d6929190620035bf565b5090505060e0604051908101604052806040805190810160405280601181526020017f54616d6a616e696b612076696e6f20354c00000000000000000000000000000081525081526020016040805190810160405280600481526020017f56696e6f000000000000000000000000000000000000000000000000000000008152508152602001606060405190810160405280603981526020017f50726f766572656e6f206e616a6b76616c697465746e696a652062656c6f207681526020017f696e6f207520537262696a692c2070756e6f6720756b7573610000000000000081525081526020016040805190810160405280600481526020017f313030300000000000000000000000000000000000000000000000000000000081525081526020016040805190810160405280600a81526020017f303639323334383836310000000000000000000000000000000000000000000081525081526020016040805190810160405280600b81526020017f42757265427572656e636500000000000000000000000000000000000000000081525081526020016040805190810160405280601781526020017f31363230363632343832323236696d616765392e706e6700000000000000000081525081525060026000600881526020019081526020016000206000820151816000019080519060200190620017da929190620035bf565b506020820151816001019080519060200190620017f9929190620035bf565b50604082015181600201908051906020019062001818929190620035bf565b50606082015181600301908051906020019062001837929190620035bf565b50608082015181600401908051906020019062001856929190620035bf565b5060a082015181600501908051906020019062001875929190620035bf565b5060c082015181600601908051906020019062001894929190620035bf565b5090505060e0604051908101604052806040805190810160405280600681526020017f4a61676f6465000000000000000000000000000000000000000000000000000081525081526020016040805190810160405280600481526020017f566f63650000000000000000000000000000000000000000000000000000000081525081526020016040805190810160405280601b81526020017f4e657072736b616e652c207376657a652c2032303064696e2f6b67000000000081525081526020016040805190810160405280600381526020017f323030000000000000000000000000000000000000000000000000000000000081525081526020016040805190810160405280600a81526020017f303634323334353539360000000000000000000000000000000000000000000081525081526020016040805190810160405280600e81526020017f4a61676f64696361426f6269636100000000000000000000000000000000000081525081526020016040805190810160405280601881526020017f31363230363632343937343730696d61676531302e706e6700000000000000008152508152506002600060098152602001908152602001600020600082015181600001908051906020019062001a71929190620035bf565b50602082015181600101908051906020019062001a90929190620035bf565b50604082015181600201908051906020019062001aaf929190620035bf565b50606082015181600301908051906020019062001ace929190620035bf565b50608082015181600401908051906020019062001aed929190620035bf565b5060a082015181600501908051906020019062001b0c929190620035bf565b5060c082015181600601908051906020019062001b2b929190620035bf565b5090505060e0604051908101604052806040805190810160405280600e81526020017f447a656d206f6420736c6a69766100000000000000000000000000000000000081525081526020016040805190810160405280600481526020017f447a656d000000000000000000000000000000000000000000000000000000008152508152602001606060405190810160405280602481526020017f4e616a756b75736e696a6920647a656d206f6420736c6a69766120333530646981526020017f6e2f6b670000000000000000000000000000000000000000000000000000000081525081526020016040805190810160405280600381526020017f333530000000000000000000000000000000000000000000000000000000000081525081526020016040805190810160405280600a81526020017f303635323234353839360000000000000000000000000000000000000000000081525081526020016040805190810160405280600e81526020017f446164696c6a61536c6a69766b6100000000000000000000000000000000000081525081526020016040805190810160405280601881526020017f31363230363632353039303034696d61676531312e706e67000000000000000081525081525060026000600a8152602001908152602001600020600082015181600001908051906020019062001d2f929190620035bf565b50602082015181600101908051906020019062001d4e929190620035bf565b50604082015181600201908051906020019062001d6d929190620035bf565b50606082015181600301908051906020019062001d8c929190620035bf565b50608082015181600401908051906020019062001dab929190620035bf565b5060a082015181600501908051906020019062001dca929190620035bf565b5060c082015181600601908051906020019062001de9929190620035bf565b5090505060e0604051908101604052806040805190810160405280600681526020017f4d616c696e65000000000000000000000000000000000000000000000000000081525081526020016040805190810160405280600481526020017f566f63650000000000000000000000000000000000000000000000000000000081525081526020016040805190810160405280601b81526020017f4e657072736b616e652c207376657a652c2032353064696e2f6b67000000000081525081526020016040805190810160405280600381526020017f323530000000000000000000000000000000000000000000000000000000000081525081526020016040805190810160405280600a81526020017f303634323334353539360000000000000000000000000000000000000000000081525081526020016040805190810160405280600e81526020017f4a61676f64696361426f6269636100000000000000000000000000000000000081525081526020016040805190810160405280601881526020017f31363230363632353137353038696d61676531322e706e67000000000000000081525081525060026000600b8152602001908152602001600020600082015181600001908051906020019062001fc6929190620035bf565b50602082015181600101908051906020019062001fe5929190620035bf565b50604082015181600201908051906020019062002004929190620035bf565b50606082015181600301908051906020019062002023929190620035bf565b50608082015181600401908051906020019062002042929190620035bf565b5060a082015181600501908051906020019062002061929190620035bf565b5060c082015181600601908051906020019062002080929190620035bf565b5090505060e0604051908101604052806040805190810160405280600b81526020017f4b7261766c6a692073697200000000000000000000000000000000000000000081525081526020016040805190810160405280601881526020017f4d6c656b6f2069206d6c65636e692070726f697a766f6469000000000000000081525081526020016040805190810160405280601d81526020017f446f6d616369206b7261766c6a69207369722c2035303064696e2f6b6700000081525081526020016040805190810160405280600381526020017f353030000000000000000000000000000000000000000000000000000000000081525081526020016040805190810160405280600a81526020017f303634383936333132350000000000000000000000000000000000000000000081525081526020016040805190810160405280600a81526020017f506572615065726963610000000000000000000000000000000000000000000081525081526020016040805190810160405280601881526020017f31363230363632353238303636696d61676531332e706e67000000000000000081525081525060026000600c815260200190815260200160002060008201518160000190805190602001906200225d929190620035bf565b5060208201518160010190805190602001906200227c929190620035bf565b5060408201518160020190805190602001906200229b929190620035bf565b506060820151816003019080519060200190620022ba929190620035bf565b506080820151816004019080519060200190620022d9929190620035bf565b5060a0820151816005019080519060200190620022f8929190620035bf565b5060c082015181600601908051906020019062002317929190620035bf565b5090505060e0604051908101604052806040805190810160405280600681526020017f4b7570696e65000000000000000000000000000000000000000000000000000081525081526020016040805190810160405280600481526020017f566f63650000000000000000000000000000000000000000000000000000000081525081526020016040805190810160405280601b81526020017f4e657072736b616e652c207376657a652c2032373064696e2f6b67000000000081525081526020016040805190810160405280600381526020017f323730000000000000000000000000000000000000000000000000000000000081525081526020016040805190810160405280600a81526020017f303634323334353539360000000000000000000000000000000000000000000081525081526020016040805190810160405280600e81526020017f4a61676f64696361426f6269636100000000000000000000000000000000000081525081526020016040805190810160405280601881526020017f31363230363632353339363333696d61676531342e706e67000000000000000081525081525060026000600d81526020019081526020016000206000820151816000019080519060200190620024f4929190620035bf565b50602082015181600101908051906020019062002513929190620035bf565b50604082015181600201908051906020019062002532929190620035bf565b50606082015181600301908051906020019062002551929190620035bf565b50608082015181600401908051906020019062002570929190620035bf565b5060a08201518160050190805190602001906200258f929190620035bf565b5060c0820151816006019080519060200190620025ae929190620035bf565b5090505060e0604051908101604052806040805190810160405280600981526020017f426f726f766e696365000000000000000000000000000000000000000000000081525081526020016040805190810160405280600481526020017f566f63650000000000000000000000000000000000000000000000000000000081525081526020016040805190810160405280601b81526020017f4e657072736b616e652c207376657a652c2033303064696e2f6b67000000000081525081526020016040805190810160405280600381526020017f333030000000000000000000000000000000000000000000000000000000000081525081526020016040805190810160405280600a81526020017f303634323334353539360000000000000000000000000000000000000000000081525081526020016040805190810160405280600e81526020017f4a61676f64696361426f6269636100000000000000000000000000000000000081525081526020016040805190810160405280601881526020017f31363230363632353438383534696d61676531352e706e67000000000000000081525081525060026000600e815260200190815260200160002060008201518160000190805190602001906200278b929190620035bf565b506020820151816001019080519060200190620027aa929190620035bf565b506040820151816002019080519060200190620027c9929190620035bf565b506060820151816003019080519060200190620027e8929190620035bf565b50608082015181600401908051906020019062002807929190620035bf565b5060a082015181600501908051906020019062002826929190620035bf565b5060c082015181600601908051906020019062002845929190620035bf565b5090505060e0604051908101604052806040805190810160405280600d81526020017f446f6d616369206b616a6d616b0000000000000000000000000000000000000081525081526020016040805190810160405280601881526020017f4d6c656b6f2069206d6c65636e692070726f697a766f6469000000000000000081525081526020016040805190810160405280602081526020017f446f6d616369206b7261766c6a69206b616a6d616b2c2038303064696e2f6b6781525081526020016040805190810160405280600381526020017f383030000000000000000000000000000000000000000000000000000000000081525081526020016040805190810160405280600a81526020017f303634383936333132350000000000000000000000000000000000000000000081525081526020016040805190810160405280600a81526020017f506572615065726963610000000000000000000000000000000000000000000081525081526020016040805190810160405280601881526020017f31363230363632353537333033696d61676531362e706e67000000000000000081525081525060026000600f8152602001908152602001600020600082015181600001908051906020019062002a22929190620035bf565b50602082015181600101908051906020019062002a41929190620035bf565b50604082015181600201908051906020019062002a60929190620035bf565b50606082015181600301908051906020019062002a7f929190620035bf565b50608082015181600401908051906020019062002a9e929190620035bf565b5060a082015181600501908051906020019062002abd929190620035bf565b5060c082015181600601908051906020019062002adc929190620035bf565b5090505060e0604051908101604052806040805190810160405280600681526020017f536c6a697665000000000000000000000000000000000000000000000000000081525081526020016040805190810160405280600481526020017f566f63650000000000000000000000000000000000000000000000000000000081525081526020016040805190810160405280601f81526020017f4e657072736b616e652c7376657a652c6b7275706e652c353564696e2f6b670081525081526020016040805190810160405280600281526020017f353500000000000000000000000000000000000000000000000000000000000081525081526020016040805190810160405280600a81526020017f303635323234353839360000000000000000000000000000000000000000000081525081526020016040805190810160405280600e81526020017f446164696c6a61536c6a69766b6100000000000000000000000000000000000081525081526020016040805190810160405280601881526020017f31363230363632353636313738696d61676531372e706e6700000000000000008152508152506002600060108152602001908152602001600020600082015181600001908051906020019062002cb9929190620035bf565b50602082015181600101908051906020019062002cd8929190620035bf565b50604082015181600201908051906020019062002cf7929190620035bf565b50606082015181600301908051906020019062002d16929190620035bf565b50608082015181600401908051906020019062002d35929190620035bf565b5060a082015181600501908051906020019062002d54929190620035bf565b5060c082015181600601908051906020019062002d73929190620035bf565b5090505060e0604051908101604052806040805190810160405280601081526020017f536c61746b6f206f6420736c6a6976610000000000000000000000000000000081525081526020016040805190810160405280600681526020017f4e616d617a6100000000000000000000000000000000000000000000000000008152508152602001606060405190810160405280603081526020017f507265756b75736e6f2c20646f6d61636520736c61746b6f206f6420736c6a6981526020017f76612c207465676c6520706f20316b670000000000000000000000000000000081525081526020016040805190810160405280600381526020017f353030000000000000000000000000000000000000000000000000000000000081525081526020016040805190810160405280600a81526020017f303635323234353839360000000000000000000000000000000000000000000081525081526020016040805190810160405280600e81526020017f446164696c6a61536c6a69766b6100000000000000000000000000000000000081525081526020016040805190810160405280601881526020017f31363230363632353733373935696d61676531382e706e6700000000000000008152508152506002600060118152602001908152602001600020600082015181600001908051906020019062002f77929190620035bf565b50602082015181600101908051906020019062002f96929190620035bf565b50604082015181600201908051906020019062002fb5929190620035bf565b50606082015181600301908051906020019062002fd4929190620035bf565b50608082015181600401908051906020019062002ff3929190620035bf565b5060a082015181600501908051906020019062003012929190620035bf565b5060c082015181600601908051906020019062003031929190620035bf565b5090505060e0604051908101604052806040805190810160405280600d81526020017f4b7261766c6a65206d6c656b6f0000000000000000000000000000000000000081525081526020016040805190810160405280601881526020017f4d6c656b6f2069206d6c65636e692070726f697a766f646900000000000000008152508152602001606060405190810160405280602c81526020017f446f6d616365206b7261766c6a65206d6c656b6f2075207374616b6c656e6f6a81526020017f20616d62616c617a6920314c000000000000000000000000000000000000000081525081526020016040805190810160405280600381526020017f323030000000000000000000000000000000000000000000000000000000000081525081526020016040805190810160405280600a81526020017f303634383936333132350000000000000000000000000000000000000000000081525081526020016040805190810160405280600a81526020017f506572615065726963610000000000000000000000000000000000000000000081525081526020016040805190810160405280601881526020017f31363230363632353831313336696d61676531392e706e6700000000000000008152508152506002600060128152602001908152602001600020600082015181600001908051906020019062003235929190620035bf565b50602082015181600101908051906020019062003254929190620035bf565b50604082015181600201908051906020019062003273929190620035bf565b50606082015181600301908051906020019062003292929190620035bf565b506080820151816004019080519060200190620032b1929190620035bf565b5060a0820151816005019080519060200190620032d0929190620035bf565b5060c0820151816006019080519060200190620032ef929190620035bf565b5090505060e0604051908101604052806040805190810160405280600d81526020017f5375766120706563656e6963610000000000000000000000000000000000000081525081526020016040805190810160405280601981526020017f4d65736f2069206d65736e65207072657261646a6576696e65000000000000008152508152602001606060405190810160405280603281526020017f5375766120706563656e696361206f64206e616a6b76616c697465746e696a6581526020017f67206d6573612c203135303064696e2f6b67000000000000000000000000000081525081526020016040805190810160405280600481526020017f313530300000000000000000000000000000000000000000000000000000000081525081526020016040805190810160405280600a81526020017f303634313530323235360000000000000000000000000000000000000000000081525081526020016040805190810160405280600881526020017f43696b614d69736100000000000000000000000000000000000000000000000081525081526020016040805190810160405280601881526020017f31363230363632353933363236696d61676532302e706e67000000000000000081525081525060026000601381526020019081526020016000206000820151816000019080519060200190620034f3929190620035bf565b50602082015181600101908051906020019062003512929190620035bf565b50604082015181600201908051906020019062003531929190620035bf565b50606082015181600301908051906020019062003550929190620035bf565b5060808201518160040190805190602001906200356f929190620035bf565b5060a08201518160050190805190602001906200358e929190620035bf565b5060c0820151816006019080519060200190620035ad929190620035bf565b5090505060146000819055506200366e565b828054600181600116156101000203166002900490600052602060002090601f016020900481019282601f106200360257805160ff191683800117855562003633565b8280016001018555821562003633579182015b828111156200363257825182559160200191906001019062003615565b5b50905062003642919062003646565b5090565b6200366b91905b80821115620036675760008160009055506001016200364d565b5090565b90565b611aa2806200367e6000396000f3fe608060405260043610610083576000357c0100000000000000000000000000000000000000000000000000000000900463ffffffff16806303831f531461008857806311a7a4c0146102145780635b73131914610550578063836e70a6146106af5780638980f837146106da5780639c89dcf3146108d0578063f9134dc4146108fb575b600080fd5b34801561009457600080fd5b506100c1600480360360208110156100ab57600080fd5b8101908080359060200190929190505050610d6e565b60405180806020018060200180602001848103845287818151815260200191508051906020019080838360005b838110156101095780820151818401526020810190506100ee565b50505050905090810190601f1680156101365780820380516001836020036101000a031916815260200191505b50848103835286818151815260200191508051906020019080838360005b8381101561016f578082015181840152602081019050610154565b50505050905090810190601f16801561019c5780820380516001836020036101000a031916815260200191505b50848103825285818151815260200191508051906020019080838360005b838110156101d55780820151818401526020810190506101ba565b50505050905090810190601f1680156102025780820380516001836020036101000a031916815260200191505b50965050505050505060405180910390f35b34801561022057600080fd5b5061024d6004803603602081101561023757600080fd5b8101908080359060200190929190505050610f60565b604051808060200180602001806020018060200180602001806020018060200188810388528f818151815260200191508051906020019080838360005b838110156102a557808201518184015260208101905061028a565b50505050905090810190601f1680156102d25780820380516001836020036101000a031916815260200191505b5088810387528e818151815260200191508051906020019080838360005b8381101561030b5780820151818401526020810190506102f0565b50505050905090810190601f1680156103385780820380516001836020036101000a031916815260200191505b5088810386528d818151815260200191508051906020019080838360005b83811015610371578082015181840152602081019050610356565b50505050905090810190601f16801561039e5780820380516001836020036101000a031916815260200191505b5088810385528c818151815260200191508051906020019080838360005b838110156103d75780820151818401526020810190506103bc565b50505050905090810190601f1680156104045780820380516001836020036101000a031916815260200191505b5088810384528b818151815260200191508051906020019080838360005b8381101561043d578082015181840152602081019050610422565b50505050905090810190601f16801561046a5780820380516001836020036101000a031916815260200191505b5088810383528a818151815260200191508051906020019080838360005b838110156104a3578082015181840152602081019050610488565b50505050905090810190601f1680156104d05780820380516001836020036101000a031916815260200191505b50888103825289818151815260200191508051906020019080838360005b838110156105095780820151818401526020810190506104ee565b50505050905090810190601f1680156105365780820380516001836020036101000a031916815260200191505b509e50505050505050505050505050505060405180910390f35b34801561055c57600080fd5b506106ad6004803603604081101561057357600080fd5b810190808035906020019064010000000081111561059057600080fd5b8201836020820111156105a257600080fd5b803590602001918460018302840111640100000000831117156105c457600080fd5b91908080601f016020809104026020016040519081016040528093929190818152602001838380828437600081840152601f19601f8201169050808301925050505050505091929192908035906020019064010000000081111561062757600080fd5b82018360208201111561063957600080fd5b8035906020019184600183028401116401000000008311171561065b57600080fd5b91908080601f016020809104026020016040519081016040528093929190818152602001838380828437600081840152601f19601f8201169050808301925050505050505091929192905050506113ca565b005b3480156106bb57600080fd5b506106c4611660565b6040518082815260200191505060405180910390f35b3480156106e657600080fd5b506108ce600480360360608110156106fd57600080fd5b810190808035906020019064010000000081111561071a57600080fd5b82018360208201111561072c57600080fd5b8035906020019184600183028401116401000000008311171561074e57600080fd5b91908080601f016020809104026020016040519081016040528093929190818152602001838380828437600081840152601f19601f820116905080830192505050505050509192919290803590602001906401000000008111156107b157600080fd5b8201836020820111156107c357600080fd5b803590602001918460018302840111640100000000831117156107e557600080fd5b91908080601f016020809104026020016040519081016040528093929190818152602001838380828437600081840152601f19601f8201169050808301925050505050505091929192908035906020019064010000000081111561084857600080fd5b82018360208201111561085a57600080fd5b8035906020019184600183028401116401000000008311171561087c57600080fd5b91908080601f016020809104026020016040519081016040528093929190818152602001838380828437600081840152601f19601f820116905080830192505050505050509192919290505050611666565b005b3480156108dc57600080fd5b506108e5611704565b6040518082815260200191505060405180910390f35b34801561090757600080fd5b50610d6c600480360361010081101561091f57600080fd5b810190808035906020019064010000000081111561093c57600080fd5b82018360208201111561094e57600080fd5b8035906020019184600183028401116401000000008311171561097057600080fd5b91908080601f016020809104026020016040519081016040528093929190818152602001838380828437600081840152601f19601f820116905080830192505050505050509192919290803590602001906401000000008111156109d357600080fd5b8201836020820111156109e557600080fd5b80359060200191846001830284011164010000000083111715610a0757600080fd5b91908080601f016020809104026020016040519081016040528093929190818152602001838380828437600081840152601f19601f82011690508083019250505050505050919291929080359060200190640100000000811115610a6a57600080fd5b820183602082011115610a7c57600080fd5b80359060200191846001830284011164010000000083111715610a9e57600080fd5b91908080601f016020809104026020016040519081016040528093929190818152602001838380828437600081840152601f19601f82011690508083019250505050505050919291929080359060200190640100000000811115610b0157600080fd5b820183602082011115610b1357600080fd5b80359060200191846001830284011164010000000083111715610b3557600080fd5b91908080601f016020809104026020016040519081016040528093929190818152602001838380828437600081840152601f19601f82011690508083019250505050505050919291929080359060200190640100000000811115610b9857600080fd5b820183602082011115610baa57600080fd5b80359060200191846001830284011164010000000083111715610bcc57600080fd5b91908080601f016020809104026020016040519081016040528093929190818152602001838380828437600081840152601f19601f82011690508083019250505050505050919291929080359060200190640100000000811115610c2f57600080fd5b820183602082011115610c4157600080fd5b80359060200191846001830284011164010000000083111715610c6357600080fd5b91908080601f016020809104026020016040519081016040528093929190818152602001838380828437600081840152601f19601f82011690508083019250505050505050919291929080359060200190640100000000811115610cc657600080fd5b820183602082011115610cd857600080fd5b80359060200191846001830284011164010000000083111715610cfa57600080fd5b91908080601f016020809104026020016040519081016040528093929190818152602001838380828437600081840152601f19601f820116905080830192505050505050509192919290803573ffffffffffffffffffffffffffffffffffffffff16906020019092919050505061170a565b005b6003602052806000526040600020600091509050806000018054600181600116156101000203166002900480601f016020809104026020016040519081016040528092919081815260200182805460018160011615610100020316600290048015610e1a5780601f10610def57610100808354040283529160200191610e1a565b820191906000526020600020905b815481529060010190602001808311610dfd57829003601f168201915b505050505090806001018054600181600116156101000203166002900480601f016020809104026020016040519081016040528092919081815260200182805460018160011615610100020316600290048015610eb85780601f10610e8d57610100808354040283529160200191610eb8565b820191906000526020600020905b815481529060010190602001808311610e9b57829003601f168201915b505050505090806002018054600181600116156101000203166002900480601f016020809104026020016040519081016040528092919081815260200182805460018160011615610100020316600290048015610f565780601f10610f2b57610100808354040283529160200191610f56565b820191906000526020600020905b815481529060010190602001808311610f3957829003601f168201915b5050505050905083565b6002602052806000526040600020600091509050806000018054600181600116156101000203166002900480601f01602080910402602001604051908101604052809291908181526020018280546001816001161561010002031660029004801561100c5780601f10610fe15761010080835404028352916020019161100c565b820191906000526020600020905b815481529060010190602001808311610fef57829003601f168201915b505050505090806001018054600181600116156101000203166002900480601f0160208091040260200160405190810160405280929190818152602001828054600181600116156101000203166002900480156110aa5780601f1061107f576101008083540402835291602001916110aa565b820191906000526020600020905b81548152906001019060200180831161108d57829003601f168201915b505050505090806002018054600181600116156101000203166002900480601f0160208091040260200160405190810160405280929190818152602001828054600181600116156101000203166002900480156111485780601f1061111d57610100808354040283529160200191611148565b820191906000526020600020905b81548152906001019060200180831161112b57829003601f168201915b505050505090806003018054600181600116156101000203166002900480601f0160208091040260200160405190810160405280929190818152602001828054600181600116156101000203166002900480156111e65780601f106111bb576101008083540402835291602001916111e6565b820191906000526020600020905b8154815290600101906020018083116111c957829003601f168201915b505050505090806004018054600181600116156101000203166002900480601f0160208091040260200160405190810160405280929190818152602001828054600181600116156101000203166002900480156112845780601f1061125957610100808354040283529160200191611284565b820191906000526020600020905b81548152906001019060200180831161126757829003601f168201915b505050505090806005018054600181600116156101000203166002900480601f0160208091040260200160405190810160405280929190818152602001828054600181600116156101000203166002900480156113225780601f106112f757610100808354040283529160200191611322565b820191906000526020600020905b81548152906001019060200180831161130557829003601f168201915b505050505090806006018054600181600116156101000203166002900480601f0160208091040260200160405190810160405280929190818152602001828054600181600116156101000203166002900480156113c05780601f10611395576101008083540402835291602001916113c0565b820191906000526020600020905b8154815290600101906020018083116113a357829003601f168201915b5050505050905087565b60008090505b60005481101561165b57826040516020018082805190602001908083835b60208310151561141357805182526020820191506020810190506020830392506113ee565b6001836020036101000a038019825116818451168082178552505050505050905001915050604051602081830303815290604052805190602001206002600083815260200190815260200160002060000160405160200180828054600181600116156101000203166002900480156114c25780601f106114a05761010080835404028352918201916114c2565b820191906000526020600020905b8154815290600101906020018083116114ae575b505091505060405160208183030381529060405280519060200120141561164e57816040516020018082805190602001908083835b60208310151561151c57805182526020820191506020810190506020830392506114f7565b6001836020036101000a038019825116818451168082178552505050505050905001915050604051602081830303815290604052805190602001206002600083815260200190815260200160002060050160405160200180828054600181600116156101000203166002900480156115cb5780601f106115a95761010080835404028352918201916115cb565b820191906000526020600020905b8154815290600101906020018083116115b7575b505091505060405160208183030381529060405280519060200120141561164d576040805190810160405280600781526020017f6f62726973616e0000000000000000000000000000000000000000000000000081525060026000838152602001908152602001600020600001908051906020019061164b929190611951565b505b5b80806001019150506113d0565b505050565b60015481565b60606040519081016040528084815260200183815260200182815250600360006001600081548092919060010191905055815260200190815260200160002060008201518160000190805190602001906116c19291906119d1565b5060208201518160010190805190602001906116de9291906119d1565b5060408201518160020190805190602001906116fb9291906119d1565b50905050505050565b60005481565b60008190508073ffffffffffffffffffffffffffffffffffffffff16633eecc9b9856040518263ffffffff167c01000000000000000000000000000000000000000000000000000000000281526004018080602001828103825283818151815260200191508051906020019080838360005b8381101561179757808201518184015260208101905061177c565b50505050905090810190601f1680156117c45780820380516001836020036101000a031916815260200191505b509250505060206040518083038186803b1580156117e157600080fd5b505afa1580156117f5573d6000803e3d6000fd5b505050506040513d602081101561180b57600080fd5b8101908080519060200190929190505050156119465760e0604051908101604052808a8152602001898152602001888152602001878152602001868152602001858152602001848152506002600080600081548092919060010191905055815260200190815260200160002060008201518160000190805190602001906118939291906119d1565b5060208201518160010190805190602001906118b09291906119d1565b5060408201518160020190805190602001906118cd9291906119d1565b5060608201518160030190805190602001906118ea9291906119d1565b5060808201518160040190805190602001906119079291906119d1565b5060a08201518160050190805190602001906119249291906119d1565b5060c08201518160060190805190602001906119419291906119d1565b509050505b505050505050505050565b828054600181600116156101000203166002900490600052602060002090601f016020900481019282601f1061199257805160ff19168380011785556119c0565b828001600101855582156119c0579182015b828111156119bf5782518255916020019190600101906119a4565b5b5090506119cd9190611a51565b5090565b828054600181600116156101000203166002900490600052602060002090601f016020900481019282601f10611a1257805160ff1916838001178555611a40565b82800160010185558215611a40579182015b82811115611a3f578251825591602001919060010190611a24565b5b509050611a4d9190611a51565b5090565b611a7391905b80821115611a6f576000816000905550600101611a57565b5090565b9056fea165627a7a72305820e69aa3d342ad64ec0ebe30ae3bb1b16e42ae9d44d004564cff933887af0ba9800029",
  "source": "// SPDX-License-Identifier: MIT\r\npragma solidity >=0.4.22 <0.9.0;\r\n\r\nimport \"./User.sol\";\r\n\r\ncontract AdList {\r\n    uint public adCount;\r\n    uint public slikeCount;\r\n\r\n    struct Ad {\r\n        string name;\r\n        string category;\r\n        string description;\r\n        string price;\r\n        string contact;\r\n        string korisnik;\r\n        string picHash;\r\n    }\r\n    \r\n     struct Slika{\r\n        string adName;\r\n        string adOwner;\r\n        string hash;\r\n    }\r\n\r\n\r\n    mapping(uint => Ad) public ads;\r\n    mapping(uint => Slika) public slike;\r\n    \r\n\r\n    event AdCreated(string adName, uint adNumber);\r\n    \r\n    constructor() public {\r\n\r\n        ads[0] = Ad(\"Hortenzije\", \"Cvece\", \"Sadnice stare 2 godine, vise boja\", \"800\", \"0615632448\", \"Cvecarka77\",\"1620662392243image1.png\");\r\n        ads[1] = Ad(\"Svez med\", \"Med\", \"Domaci med, bagremov, livadski, sumski\", \"700\", \"0661493365\", \"PcelicaMaja\",\"1620662425120image2.png\");\r\n        ads[2] = Ad(\"Posni kolaci\",\"Slatkisi\",\"Sitni kolaci, idealni za proslave, 7 vrsta,  cena po kg\",\"800\",\"0635562395\",\"Secerlema\",\"1620662432563image3.png\");\r\n        ads[3] = Ad(\"Patuljaste ruze\", \"Cvece\", \"Sadnice patuljastih ruza, vise boja\", \"500\", \"0615632448\", \"Cvecarka77\",\"1620662441023image4.png\");\r\n        ads[4] = Ad(\"Merlot vino 2L\",\"Vino\",\"Najkvalitetnije u Srbiji, punog ukusa\",\"300\",\"0692348861\",\"BureBurence\",\"1620662448753image5.png\");\r\n        ads[5] = Ad(\"Domaci cvarci\",\"Meso i mesne preradjevine\",\"Hrskavi,domaci cvarci 550din/kg\",\"550\",\"0641502256\",\"CikaMisa\",\"1620662457917image6.png\");\r\n        ads[6] = Ad(\"Tamjanika vino 2L\",\"Vino\",\"Provereno najkvalitetnije belo vino u Srbiji, punog ukusa\",\"400\",\"0692348861\",\"BureBurence\",\"1620662466427image7.png\");\r\n        ads[7] = Ad(\"Sljivovica 1L\",\"Rakija\",\"Pitka, ostra, domaca rakija od sljive, 500din/l\",\"500\",\"0652245896\",\"DadiljaSljivka\",\"1620662473403image8.png\");\r\n        ads[8] = Ad(\"Tamjanika vino 5L\",\"Vino\",\"Provereno najkvalitetnije belo vino u Srbiji, punog ukusa\",\"1000\",\"0692348861\",\"BureBurence\",\"1620662482226image9.png\");\r\n        ads[9] = Ad(\"Jagode\",\"Voce\",\"Neprskane, sveze, 200din/kg\",\"200\",\"0642345596\",\"JagodicaBobica\",\"1620662497470image10.png\");\r\n        ads[10] = Ad(\"Dzem od sljiva\",\"Dzem\",\"Najukusniji dzem od sljiva 350din/kg\",\"350\",\"0652245896\",\"DadiljaSljivka\",\"1620662509004image11.png\");\r\n        ads[11] = Ad(\"Maline\",\"Voce\",\"Neprskane, sveze, 250din/kg\",\"250\",\"0642345596\",\"JagodicaBobica\",\"1620662517508image12.png\");\r\n        ads[12] = Ad(\"Kravlji sir\",\"Mleko i mlecni proizvodi\",\"Domaci kravlji sir, 500din/kg\",\"500\",\"0648963125\",\"PeraPerica\",\"1620662528066image13.png\");\r\n        ads[13] = Ad(\"Kupine\",\"Voce\",\"Neprskane, sveze, 270din/kg\",\"270\",\"0642345596\",\"JagodicaBobica\",\"1620662539633image14.png\");\r\n        ads[14] = Ad(\"Borovnice\",\"Voce\",\"Neprskane, sveze, 300din/kg\",\"300\",\"0642345596\",\"JagodicaBobica\",\"1620662548854image15.png\");\r\n        ads[15] = Ad(\"Domaci kajmak\",\"Mleko i mlecni proizvodi\",\"Domaci kravlji kajmak, 800din/kg\",\"800\",\"0648963125\",\"PeraPerica\",\"1620662557303image16.png\");\r\n        ads[16] = Ad(\"Sljive\",\"Voce\",\"Neprskane,sveze,krupne,55din/kg\",\"55\",\"0652245896\",\"DadiljaSljivka\",\"1620662566178image17.png\");\r\n        ads[17] = Ad(\"Slatko od sljiva\",\"Namaza\",\"Preukusno, domace slatko od sljiva, tegle po 1kg\",\"500\",\"0652245896\",\"DadiljaSljivka\",\"1620662573795image18.png\");\r\n        ads[18] = Ad(\"Kravlje mleko\",\"Mleko i mlecni proizvodi\",\"Domace kravlje mleko u staklenoj ambalazi 1L\",\"200\",\"0648963125\",\"PeraPerica\",\"1620662581136image19.png\");\r\n        ads[19] = Ad(\"Suva pecenica\",\"Meso i mesne preradjevine\",\"Suva pecenica od najkvalitetnijeg mesa, 1500din/kg\",\"1500\",\"0641502256\",\"CikaMisa\",\"1620662593626image20.png\");\r\n\r\n        adCount = 20;\r\n    }\r\n\r\n\r\n    function createAd(string memory _name, string memory _category, string memory _description, string memory _price, string memory _contact, string memory _user, string memory pic, address userCrudAdrdess)\r\n    public {\r\n        UserCrud uc = UserCrud(userCrudAdrdess);\r\n        if(uc.isUserExists(_user)) {\r\n            ads[adCount++] =Ad(_name, _category, _description, _price, _contact, _user,pic);\r\n        }\r\n\r\n//        emit AdCreated(_name, adCount - 1);\r\n    }\r\n\r\n    function removeAd(string memory _name, string memory _user) public \r\n    {\r\n        for(uint i=0;i<adCount;i++)\r\n        {\r\n            if(keccak256(abi.encodePacked(ads[i].name)) == keccak256(abi.encodePacked(_name)))\r\n            {\r\n                if(keccak256(abi.encodePacked(ads[i].korisnik)) == keccak256(abi.encodePacked(_user)))   \r\n                {\r\n                    ads[i].name = \"obrisan\";\r\n                }\r\n            }\r\n        }\r\n    }\r\n\r\n    function addPic(string memory adName, string  memory adOwner, string memory hash) public\r\n    {\r\n        slike[slikeCount++] = Slika(adName,adOwner,hash);\r\n    }\r\n   \r\n\r\n\r\n\r\n}\r\n//contract UserCrud {\r\n//    function isUserExists(string memory username) public returns(bool);\r\n//}",
  "sourcePath": "C:/Users/Korisnik/Desktop/PredTest/TechLab/App/kotarica/contracts/Ads.sol",
  "compiler": {
    "name": "solc",
    "version": "0.5.0+commit.1d4f565a.Emscripten.clang"
  },
  "schemaVersion": "3.0.1",
  "updatedAt": "2021-05-20T13:32:18.532Z",
  "devdoc": {
    "methods": {}
  },
  "userdoc": {
    "methods": {}
  }
}