{
  "contractName": "WishList",
  "abi": [
    {
      "constant": true,
      "inputs": [],
      "name": "wishCount",
      "outputs": [
        {
          "name": "",
          "type": "uint256"
        }
      ],
      "payable": false,
      "stateMutability": "view",
      "type": "function",
      "signature": "0x40569449"
    },
    {
      "constant": true,
      "inputs": [],
      "name": "oceneCount",
      "outputs": [
        {
          "name": "",
          "type": "uint256"
        }
      ],
      "payable": false,
      "stateMutability": "view",
      "type": "function",
      "signature": "0x6e4b6444"
    },
    {
      "constant": true,
      "inputs": [
        {
          "name": "",
          "type": "uint256"
        }
      ],
      "name": "wishes",
      "outputs": [
        {
          "name": "username",
          "type": "string"
        },
        {
          "name": "adOwner",
          "type": "string"
        },
        {
          "name": "adName",
          "type": "string"
        },
        {
          "name": "uListi",
          "type": "bool"
        }
      ],
      "payable": false,
      "stateMutability": "view",
      "type": "function",
      "signature": "0x8820e466"
    },
    {
      "constant": true,
      "inputs": [
        {
          "name": "",
          "type": "uint256"
        }
      ],
      "name": "ocene",
      "outputs": [
        {
          "name": "adName",
          "type": "string"
        },
        {
          "name": "adOwner",
          "type": "string"
        },
        {
          "name": "brojOcena",
          "type": "uint256"
        },
        {
          "name": "zbirOcena",
          "type": "uint256"
        }
      ],
      "payable": false,
      "stateMutability": "view",
      "type": "function",
      "signature": "0xd5b0f2b3"
    },
    {
      "constant": false,
      "inputs": [
        {
          "name": "username",
          "type": "string"
        },
        {
          "name": "adOwner",
          "type": "string"
        },
        {
          "name": "adName",
          "type": "string"
        }
      ],
      "name": "addToWishList",
      "outputs": [],
      "payable": false,
      "stateMutability": "nonpayable",
      "type": "function",
      "signature": "0x5e2c4164"
    },
    {
      "constant": false,
      "inputs": [
        {
          "name": "username",
          "type": "string"
        },
        {
          "name": "adOwner",
          "type": "string"
        },
        {
          "name": "adName",
          "type": "string"
        }
      ],
      "name": "removeFromWishList",
      "outputs": [],
      "payable": false,
      "stateMutability": "nonpayable",
      "type": "function",
      "signature": "0x5c2ef581"
    },
    {
      "constant": false,
      "inputs": [
        {
          "name": "adOwner",
          "type": "string"
        },
        {
          "name": "adName",
          "type": "string"
        },
        {
          "name": "ocena",
          "type": "uint256"
        }
      ],
      "name": "dodeliOcenu",
      "outputs": [],
      "payable": false,
      "stateMutability": "nonpayable",
      "type": "function",
      "signature": "0x56503a69"
    }
  ],
  "bytecode": "0x608060405234801561001057600080fd5b50611599806100206000396000f3fe608060405260043610610083576000357c0100000000000000000000000000000000000000000000000000000000900463ffffffff168063405694491461008857806356503a69146100b35780635c2ef5811461021c5780635e2c4164146104125780636e4b6444146106085780638820e46614610633578063d5b0f2b3146107ca575b600080fd5b34801561009457600080fd5b5061009d6108f8565b6040518082815260200191505060405180910390f35b3480156100bf57600080fd5b5061021a600480360360608110156100d657600080fd5b81019080803590602001906401000000008111156100f357600080fd5b82018360208201111561010557600080fd5b8035906020019184600183028401116401000000008311171561012757600080fd5b91908080601f016020809104026020016040519081016040528093929190818152602001838380828437600081840152601f19601f8201169050808301925050505050505091929192908035906020019064010000000081111561018a57600080fd5b82018360208201111561019c57600080fd5b803590602001918460018302840111640100000000831117156101be57600080fd5b91908080601f016020809104026020016040519081016040528093929190818152602001838380828437600081840152601f19601f820116905080830192505050505050509192919290803590602001909291905050506108fe565b005b34801561022857600080fd5b506104106004803603606081101561023f57600080fd5b810190808035906020019064010000000081111561025c57600080fd5b82018360208201111561026e57600080fd5b8035906020019184600183028401116401000000008311171561029057600080fd5b91908080601f016020809104026020016040519081016040528093929190818152602001838380828437600081840152601f19601f820116905080830192505050505050509192919290803590602001906401000000008111156102f357600080fd5b82018360208201111561030557600080fd5b8035906020019184600183028401116401000000008311171561032757600080fd5b91908080601f016020809104026020016040519081016040528093929190818152602001838380828437600081840152601f19601f8201169050808301925050505050505091929192908035906020019064010000000081111561038a57600080fd5b82018360208201111561039c57600080fd5b803590602001918460018302840111640100000000831117156103be57600080fd5b91908080601f016020809104026020016040519081016040528093929190818152602001838380828437600081840152601f19601f820116905080830192505050505050509192919290505050610cc2565b005b34801561041e57600080fd5b506106066004803603606081101561043557600080fd5b810190808035906020019064010000000081111561045257600080fd5b82018360208201111561046457600080fd5b8035906020019184600183028401116401000000008311171561048657600080fd5b91908080601f016020809104026020016040519081016040528093929190818152602001838380828437600081840152601f19601f820116905080830192505050505050509192919290803590602001906401000000008111156104e957600080fd5b8201836020820111156104fb57600080fd5b8035906020019184600183028401116401000000008311171561051d57600080fd5b91908080601f016020809104026020016040519081016040528093929190818152602001838380828437600081840152601f19601f8201169050808301925050505050505091929192908035906020019064010000000081111561058057600080fd5b82018360208201111561059257600080fd5b803590602001918460018302840111640100000000831117156105b457600080fd5b91908080601f016020809104026020016040519081016040528093929190818152602001838380828437600081840152601f19601f820116905080830192505050505050509192919290505050611097565b005b34801561061457600080fd5b5061061d61115d565b6040518082815260200191505060405180910390f35b34801561063f57600080fd5b5061066c6004803603602081101561065657600080fd5b8101908080359060200190929190505050611163565b6040518080602001806020018060200185151515158152602001848103845288818151815260200191508051906020019080838360005b838110156106be5780820151818401526020810190506106a3565b50505050905090810190601f1680156106eb5780820380516001836020036101000a031916815260200191505b50848103835287818151815260200191508051906020019080838360005b83811015610724578082015181840152602081019050610709565b50505050905090810190601f1680156107515780820380516001836020036101000a031916815260200191505b50848103825286818151815260200191508051906020019080838360005b8381101561078a57808201518184015260208101905061076f565b50505050905090810190601f1680156107b75780820380516001836020036101000a031916815260200191505b5097505050505050505060405180910390f35b3480156107d657600080fd5b50610803600480360360208110156107ed57600080fd5b8101908080359060200190929190505050611368565b604051808060200180602001858152602001848152602001838103835287818151815260200191508051906020019080838360005b83811015610853578082015181840152602081019050610838565b50505050905090810190601f1680156108805780820380516001836020036101000a031916815260200191505b50838103825286818151815260200191508051906020019080838360005b838110156108b957808201518184015260208101905061089e565b50505050905090810190601f1680156108e65780820380516001836020036101000a031916815260200191505b50965050505050505060405180910390f35b60005481565b600080905060008090505b600154811015610b8257836040516020018082805190602001908083835b60208310151561094c5780518252602082019150602081019050602083039250610927565b6001836020036101000a038019825116818451168082178552505050505050905001915050604051602081830303815290604052805190602001206003600083815260200190815260200160002060000160405160200180828054600181600116156101000203166002900480156109fb5780601f106109d95761010080835404028352918201916109fb565b820191906000526020600020905b8154815290600101906020018083116109e7575b5050915050604051602081830303815290604052805190602001201415610b7557846040516020018082805190602001908083835b602083101515610a555780518252602082019150602081019050602083039250610a30565b6001836020036101000a03801982511681845116808217855250505050505090500191505060405160208183030381529060405280519060200120600360008381526020019081526020016000206001016040516020018082805460018160011615610100020316600290048015610b045780601f10610ae2576101008083540402835291820191610b04565b820191906000526020600020905b815481529060010190602001808311610af0575b5050915050604051602081830303815290604052805190602001201415610b74576003600082815260200190815260200160002060020160008154809291906001019190505550826003600083815260200190815260200160002060030160008282540192505081905550600191505b5b8080600101915050610909565b5060006040516020018082151515157f010000000000000000000000000000000000000000000000000000000000000002815260010191505060405160208183030381529060405280519060200120816040516020018082151515157f0100000000000000000000000000000000000000000000000000000000000000028152600101915050604051602081830303815290604052805190602001201415610cbc57608060405190810160405280848152602001858152602001600181526020018381525060036000600160008154809291906001019190505581526020019081526020016000206000820151816000019080519060200190610c869291906114c8565b506020820151816001019080519060200190610ca39291906114c8565b5060408201518160020155606082015181600301559050505b50505050565b60008090505b60005481101561109157836040516020018082805190602001908083835b602083101515610d0b5780518252602082019150602081019050602083039250610ce6565b6001836020036101000a03801982511681845116808217855250505050505090500191505060405160208183030381529060405280519060200120600260008381526020019081526020016000206000016040516020018082805460018160011615610100020316600290048015610dba5780601f10610d98576101008083540402835291820191610dba565b820191906000526020600020905b815481529060010190602001808311610da6575b505091505060405160208183030381529060405280519060200120141561108457826040516020018082805190602001908083835b602083101515610e145780518252602082019150602081019050602083039250610def565b6001836020036101000a03801982511681845116808217855250505050505090500191505060405160208183030381529060405280519060200120600260008381526020019081526020016000206001016040516020018082805460018160011615610100020316600290048015610ec35780601f10610ea1576101008083540402835291820191610ec3565b820191906000526020600020905b815481529060010190602001808311610eaf575b505091505060405160208183030381529060405280519060200120141561108357816040516020018082805190602001908083835b602083101515610f1d5780518252602082019150602081019050602083039250610ef8565b6001836020036101000a03801982511681845116808217855250505050505090500191505060405160208183030381529060405280519060200120600260008381526020019081526020016000206002016040516020018082805460018160011615610100020316600290048015610fcc5780601f10610faa576101008083540402835291820191610fcc565b820191906000526020600020905b815481529060010190602001808311610fb8575b505091505060405160208183030381529060405280519060200120141561108257600115156002600083815260200190815260200160002060030160009054906101000a900460ff16151514156110515760006002600083815260200190815260200160002060030160006101000a81548160ff021916908315150217905550611081565b60016002600083815260200190815260200160002060030160006101000a81548160ff0219169083151502179055505b5b5b5b8080600101915050610cc8565b50505050565b608060405190810160405280848152602001838152602001828152602001600115158152506002600080600081548092919060010191905055815260200190815260200160002060008201518160000190805190602001906110fa9291906114c8565b5060208201518160010190805190602001906111179291906114c8565b5060408201518160020190805190602001906111349291906114c8565b5060608201518160030160006101000a81548160ff021916908315150217905550905050505050565b60015481565b6002602052806000526040600020600091509050806000018054600181600116156101000203166002900480601f01602080910402602001604051908101604052809291908181526020018280546001816001161561010002031660029004801561120f5780601f106111e45761010080835404028352916020019161120f565b820191906000526020600020905b8154815290600101906020018083116111f257829003601f168201915b505050505090806001018054600181600116156101000203166002900480601f0160208091040260200160405190810160405280929190818152602001828054600181600116156101000203166002900480156112ad5780601f10611282576101008083540402835291602001916112ad565b820191906000526020600020905b81548152906001019060200180831161129057829003601f168201915b505050505090806002018054600181600116156101000203166002900480601f01602080910402602001604051908101604052809291908181526020018280546001816001161561010002031660029004801561134b5780601f106113205761010080835404028352916020019161134b565b820191906000526020600020905b81548152906001019060200180831161132e57829003601f168201915b5050505050908060030160009054906101000a900460ff16905084565b6003602052806000526040600020600091509050806000018054600181600116156101000203166002900480601f0160208091040260200160405190810160405280929190818152602001828054600181600116156101000203166002900480156114145780601f106113e957610100808354040283529160200191611414565b820191906000526020600020905b8154815290600101906020018083116113f757829003601f168201915b505050505090806001018054600181600116156101000203166002900480601f0160208091040260200160405190810160405280929190818152602001828054600181600116156101000203166002900480156114b25780601f10611487576101008083540402835291602001916114b2565b820191906000526020600020905b81548152906001019060200180831161149557829003601f168201915b5050505050908060020154908060030154905084565b828054600181600116156101000203166002900490600052602060002090601f016020900481019282601f1061150957805160ff1916838001178555611537565b82800160010185558215611537579182015b8281111561153657825182559160200191906001019061151b565b5b5090506115449190611548565b5090565b61156a91905b8082111561156657600081600090555060010161154e565b5090565b9056fea165627a7a72305820cac528c30e846135962929feeab932e8ab78e05107f92b7624f7b7e91dcdd5fa0029",
  "source": "// SPDX-License-Identifier: MIT\r\npragma solidity >=0.4.22 <0.9.0;\r\n\r\ncontract WishList{\r\n\r\n    uint public wishCount;\r\n    uint public oceneCount;\r\n\r\n    struct Wish{\r\n        string username;\r\n        string adOwner;\r\n        string adName;\r\n        bool uListi;\r\n    }\r\n\r\n    struct OcenaOglasa{\r\n        string adName;\r\n        string adOwner;\r\n        uint brojOcena;\r\n        uint zbirOcena;\r\n    }\r\n\r\n    mapping(uint => Wish) public wishes;\r\n    mapping(uint => OcenaOglasa) public ocene;\r\n\r\n\r\n     function addToWishList(string memory username, string memory adOwner, string memory adName) public \r\n    {\r\n        wishes[wishCount++] = Wish(username,adOwner,adName,true);\r\n    }\r\n\r\n     function removeFromWishList(string memory username, string memory adOwner, string memory adName) public\r\n    {\r\n        for(uint i=0;i<wishCount;i++)\r\n        {\r\n            if(keccak256(abi.encodePacked(wishes[i].username)) == keccak256(abi.encodePacked(username)))\r\n            {\r\n                if(keccak256(abi.encodePacked(wishes[i].adOwner)) == keccak256(abi.encodePacked(adOwner)))\r\n                {\r\n                    if(keccak256(abi.encodePacked(wishes[i].adName)) == keccak256(abi.encodePacked(adName)))\r\n                    {\r\n                        if(wishes[i].uListi == true)\r\n                        wishes[i].uListi = false;\r\n                        else \r\n                        wishes[i].uListi = true;\r\n                    }\r\n                }\r\n            }\r\n        }\r\n    }\r\n    \r\n\r\n    function dodeliOcenu(string memory adOwner, string memory adName, uint ocena) public \r\n    {\r\n        bool nadjen = false;\r\n        \r\n        for(uint i=0; i<oceneCount;i++)\r\n        {\r\n            if(keccak256(abi.encodePacked(ocene[i].adName)) == keccak256(abi.encodePacked(adName))) //ako je vec ocenjivan\r\n            {\r\n                if(keccak256(abi.encodePacked(ocene[i].adOwner)) == keccak256(abi.encodePacked(adOwner)))\r\n                {\r\n                    ocene[i].brojOcena++;\r\n                    ocene[i].zbirOcena += ocena;\r\n                    nadjen = true;\r\n                    \r\n                }\r\n            }\r\n        }\r\n        \r\n        if(keccak256(abi.encodePacked(nadjen)) == keccak256(abi.encodePacked(false))) //ako oglas nije ocenjivan\r\n         ocene[oceneCount++] = OcenaOglasa(adName, adOwner,1,ocena);\r\n        \r\n    }\r\n}\r\n\r\n",
  "sourcePath": "C:/Users/Korisnik/Desktop/PredTest/TechLab/App/kotarica/contracts/Wishes.sol",
  "compiler": {
    "name": "solc",
    "version": "0.5.0+commit.1d4f565a.Emscripten.clang"
  },
  "schemaVersion": "3.0.1",
  "updatedAt": "2021-05-20T13:32:20.492Z",
  "devdoc": {
    "methods": {}
  },
  "userdoc": {
    "methods": {}
  }
}