{
  "contractName": "NotificationList",
  "abi": [
    {
      "constant": true,
      "inputs": [
        {
          "name": "",
          "type": "uint256"
        }
      ],
      "name": "kupovine",
      "outputs": [
        {
          "name": "id",
          "type": "uint256"
        },
        {
          "name": "usernameKupac",
          "type": "string"
        },
        {
          "name": "adOwner",
          "type": "string"
        },
        {
          "name": "adName",
          "type": "string"
        },
        {
          "name": "kupljeno",
          "type": "uint256"
        },
        {
          "name": "datum",
          "type": "string"
        },
        {
          "name": "ocenjeno",
          "type": "bool"
        },
        {
          "name": "komentarisano",
          "type": "bool"
        }
      ],
      "payable": false,
      "stateMutability": "view",
      "type": "function",
      "signature": "0x32fa33e2"
    },
    {
      "constant": true,
      "inputs": [],
      "name": "countWallets",
      "outputs": [
        {
          "name": "",
          "type": "uint256"
        }
      ],
      "payable": false,
      "stateMutability": "view",
      "type": "function",
      "signature": "0x59b8a95d"
    },
    {
      "constant": true,
      "inputs": [
        {
          "name": "",
          "type": "uint256"
        }
      ],
      "name": "wallets",
      "outputs": [
        {
          "name": "username",
          "type": "string"
        },
        {
          "name": "imaWallet",
          "type": "bool"
        },
        {
          "name": "publicKey",
          "type": "string"
        }
      ],
      "payable": false,
      "stateMutability": "view",
      "type": "function",
      "signature": "0x7ad71f72"
    },
    {
      "constant": true,
      "inputs": [],
      "name": "countNotif",
      "outputs": [
        {
          "name": "",
          "type": "uint256"
        }
      ],
      "payable": false,
      "stateMutability": "view",
      "type": "function",
      "signature": "0x8ca0f898"
    },
    {
      "constant": true,
      "inputs": [],
      "name": "countKupovine",
      "outputs": [
        {
          "name": "",
          "type": "uint256"
        }
      ],
      "payable": false,
      "stateMutability": "view",
      "type": "function",
      "signature": "0x8fb62144"
    },
    {
      "constant": true,
      "inputs": [
        {
          "name": "",
          "type": "uint256"
        }
      ],
      "name": "obavestenja",
      "outputs": [
        {
          "name": "id",
          "type": "uint256"
        },
        {
          "name": "naslov",
          "type": "string"
        },
        {
          "name": "sadrzaj",
          "type": "string"
        },
        {
          "name": "odKoga",
          "type": "string"
        },
        {
          "name": "zaKoga",
          "type": "string"
        },
        {
          "name": "datum",
          "type": "string"
        },
        {
          "name": "kupljeno",
          "type": "uint256"
        },
        {
          "name": "procitano",
          "type": "bool"
        }
      ],
      "payable": false,
      "stateMutability": "view",
      "type": "function",
      "signature": "0xe152c284"
    },
    {
      "constant": false,
      "inputs": [
        {
          "name": "naslov",
          "type": "string"
        },
        {
          "name": "sadrzaj",
          "type": "string"
        },
        {
          "name": "odKoga",
          "type": "string"
        },
        {
          "name": "zaKoga",
          "type": "string"
        },
        {
          "name": "datum",
          "type": "string"
        },
        {
          "name": "kupljeno",
          "type": "uint256"
        }
      ],
      "name": "dodajObavestenje",
      "outputs": [],
      "payable": false,
      "stateMutability": "nonpayable",
      "type": "function",
      "signature": "0xbed2e9fc"
    },
    {
      "constant": false,
      "inputs": [
        {
          "name": "id",
          "type": "uint256"
        }
      ],
      "name": "oznaciKaoProcitano",
      "outputs": [],
      "payable": false,
      "stateMutability": "nonpayable",
      "type": "function",
      "signature": "0x7b821fa2"
    },
    {
      "constant": false,
      "inputs": [
        {
          "name": "usernameKupac",
          "type": "string"
        },
        {
          "name": "adOwner",
          "type": "string"
        },
        {
          "name": "adName",
          "type": "string"
        },
        {
          "name": "kupljeno",
          "type": "uint256"
        },
        {
          "name": "datum",
          "type": "string"
        }
      ],
      "name": "kupiRezervisi",
      "outputs": [],
      "payable": false,
      "stateMutability": "nonpayable",
      "type": "function",
      "signature": "0x75532c03"
    },
    {
      "constant": false,
      "inputs": [
        {
          "name": "id",
          "type": "uint256"
        }
      ],
      "name": "prebaciRezervisanoUKupljeno",
      "outputs": [],
      "payable": false,
      "stateMutability": "nonpayable",
      "type": "function",
      "signature": "0xc9978a5a"
    },
    {
      "constant": false,
      "inputs": [
        {
          "name": "id",
          "type": "uint256"
        }
      ],
      "name": "prebaciUOcenjeno",
      "outputs": [],
      "payable": false,
      "stateMutability": "nonpayable",
      "type": "function",
      "signature": "0xba7423aa"
    },
    {
      "constant": false,
      "inputs": [
        {
          "name": "id",
          "type": "uint256"
        }
      ],
      "name": "prebaciUKomentarisano",
      "outputs": [],
      "payable": false,
      "stateMutability": "nonpayable",
      "type": "function",
      "signature": "0x6522f655"
    },
    {
      "constant": false,
      "inputs": [
        {
          "name": "username",
          "type": "string"
        },
        {
          "name": "imaWallet",
          "type": "bool"
        },
        {
          "name": "publicKey",
          "type": "string"
        }
      ],
      "name": "createWallet",
      "outputs": [],
      "payable": false,
      "stateMutability": "nonpayable",
      "type": "function",
      "signature": "0x4957400a"
    }
  ],
  "bytecode": "0x608060405234801561001057600080fd5b50611c3f806100206000396000f3fe6080604052600436106100c5576000357c0100000000000000000000000000000000000000000000000000000000900463ffffffff16806332fa33e2146100ca5780634957400a146102e657806359b8a95d146104515780636522f6551461047c57806375532c03146104b75780637ad71f721461074e5780637b821fa2146108795780638ca0f898146108b45780638fb62144146108df578063ba7423aa1461090a578063bed2e9fc14610945578063c9978a5a14610c73578063e152c28414610cae575b600080fd5b3480156100d657600080fd5b50610103600480360360208110156100ed57600080fd5b8101908080359060200190929190505050610f2b565b6040518089815260200180602001806020018060200188815260200180602001871515151581526020018615151515815260200185810385528c818151815260200191508051906020019080838360005b8381101561016f578082015181840152602081019050610154565b50505050905090810190601f16801561019c5780820380516001836020036101000a031916815260200191505b5085810384528b818151815260200191508051906020019080838360005b838110156101d55780820151818401526020810190506101ba565b50505050905090810190601f1680156102025780820380516001836020036101000a031916815260200191505b5085810383528a818151815260200191508051906020019080838360005b8381101561023b578082015181840152602081019050610220565b50505050905090810190601f1680156102685780820380516001836020036101000a031916815260200191505b50858103825288818151815260200191508051906020019080838360005b838110156102a1578082015181840152602081019050610286565b50505050905090810190601f1680156102ce5780820380516001836020036101000a031916815260200191505b509c5050505050505050505050505060405180910390f35b3480156102f257600080fd5b5061044f6004803603606081101561030957600080fd5b810190808035906020019064010000000081111561032657600080fd5b82018360208201111561033857600080fd5b8035906020019184600183028401116401000000008311171561035a57600080fd5b91908080601f016020809104026020016040519081016040528093929190818152602001838380828437600081840152601f19601f820116905080830192505050505050509192919290803515159060200190929190803590602001906401000000008111156103c957600080fd5b8201836020820111156103db57600080fd5b803590602001918460018302840111640100000000831117156103fd57600080fd5b91908080601f016020809104026020016040519081016040528093929190818152602001838380828437600081840152601f19601f8201169050808301925050505050505091929192905050506111ed565b005b34801561045d57600080fd5b50610466611290565b6040518082815260200191505060405180910390f35b34801561048857600080fd5b506104b56004803603602081101561049f57600080fd5b8101908080359060200190929190505050611296565b005b3480156104c357600080fd5b5061074c600480360360a08110156104da57600080fd5b81019080803590602001906401000000008111156104f757600080fd5b82018360208201111561050957600080fd5b8035906020019184600183028401116401000000008311171561052b57600080fd5b91908080601f016020809104026020016040519081016040528093929190818152602001838380828437600081840152601f19601f8201169050808301925050505050505091929192908035906020019064010000000081111561058e57600080fd5b8201836020820111156105a057600080fd5b803590602001918460018302840111640100000000831117156105c257600080fd5b91908080601f016020809104026020016040519081016040528093929190818152602001838380828437600081840152601f19601f8201169050808301925050505050505091929192908035906020019064010000000081111561062557600080fd5b82018360208201111561063757600080fd5b8035906020019184600183028401116401000000008311171561065957600080fd5b91908080601f016020809104026020016040519081016040528093929190818152602001838380828437600081840152601f19601f82011690508083019250505050505050919291929080359060200190929190803590602001906401000000008111156106c657600080fd5b8201836020820111156106d857600080fd5b803590602001918460018302840111640100000000831117156106fa57600080fd5b91908080601f016020809104026020016040519081016040528093929190818152602001838380828437600081840152601f19601f820116905080830192505050505050509192919290505050611305565b005b34801561075a57600080fd5b506107876004803603602081101561077157600080fd5b810190808035906020019092919050505061143f565b60405180806020018415151515815260200180602001838103835286818151815260200191508051906020019080838360005b838110156107d55780820151818401526020810190506107ba565b50505050905090810190601f1680156108025780820380516001836020036101000a031916815260200191505b50838103825284818151815260200191508051906020019080838360005b8381101561083b578082015181840152602081019050610820565b50505050905090810190601f1680156108685780820380516001836020036101000a031916815260200191505b509550505050505060405180910390f35b34801561088557600080fd5b506108b26004803603602081101561089c57600080fd5b81019080803590602001909291905050506115a6565b005b3480156108c057600080fd5b506108c9611615565b6040518082815260200191505060405180910390f35b3480156108eb57600080fd5b506108f461161b565b6040518082815260200191505060405180910390f35b34801561091657600080fd5b506109436004803603602081101561092d57600080fd5b8101908080359060200190929190505050611621565b005b34801561095157600080fd5b50610c71600480360360c081101561096857600080fd5b810190808035906020019064010000000081111561098557600080fd5b82018360208201111561099757600080fd5b803590602001918460018302840111640100000000831117156109b957600080fd5b91908080601f016020809104026020016040519081016040528093929190818152602001838380828437600081840152601f19601f82011690508083019250505050505050919291929080359060200190640100000000811115610a1c57600080fd5b820183602082011115610a2e57600080fd5b80359060200191846001830284011164010000000083111715610a5057600080fd5b91908080601f016020809104026020016040519081016040528093929190818152602001838380828437600081840152601f19601f82011690508083019250505050505050919291929080359060200190640100000000811115610ab357600080fd5b820183602082011115610ac557600080fd5b80359060200191846001830284011164010000000083111715610ae757600080fd5b91908080601f016020809104026020016040519081016040528093929190818152602001838380828437600081840152601f19601f82011690508083019250505050505050919291929080359060200190640100000000811115610b4a57600080fd5b820183602082011115610b5c57600080fd5b80359060200191846001830284011164010000000083111715610b7e57600080fd5b91908080601f016020809104026020016040519081016040528093929190818152602001838380828437600081840152601f19601f82011690508083019250505050505050919291929080359060200190640100000000811115610be157600080fd5b820183602082011115610bf357600080fd5b80359060200191846001830284011164010000000083111715610c1557600080fd5b91908080601f016020809104026020016040519081016040528093929190818152602001838380828437600081840152601f19601f82011690508083019250505050505050919291929080359060200190929190505050611690565b005b348015610c7f57600080fd5b50610cac60048036036020811015610c9657600080fd5b81019080803590602001909291905050506117c5565b005b348015610cba57600080fd5b50610ce760048036036020811015610cd157600080fd5b8101908080359060200190929190505050611821565b6040518089815260200180602001806020018060200180602001806020018881526020018715151515815260200186810386528d818151815260200191508051906020019080838360005b83811015610d4d578082015181840152602081019050610d32565b50505050905090810190601f168015610d7a5780820380516001836020036101000a031916815260200191505b5086810385528c818151815260200191508051906020019080838360005b83811015610db3578082015181840152602081019050610d98565b50505050905090810190601f168015610de05780820380516001836020036101000a031916815260200191505b5086810384528b818151815260200191508051906020019080838360005b83811015610e19578082015181840152602081019050610dfe565b50505050905090810190601f168015610e465780820380516001836020036101000a031916815260200191505b5086810383528a818151815260200191508051906020019080838360005b83811015610e7f578082015181840152602081019050610e64565b50505050905090810190601f168015610eac5780820380516001836020036101000a031916815260200191505b50868103825289818151815260200191508051906020019080838360005b83811015610ee5578082015181840152602081019050610eca565b50505050905090810190601f168015610f125780820380516001836020036101000a031916815260200191505b509d505050505050505050505050505060405180910390f35b6004602052806000526040600020600091509050806000015490806001018054600181600116156101000203166002900480601f016020809104026020016040519081016040528092919081815260200182805460018160011615610100020316600290048015610fdd5780601f10610fb257610100808354040283529160200191610fdd565b820191906000526020600020905b815481529060010190602001808311610fc057829003601f168201915b505050505090806002018054600181600116156101000203166002900480601f01602080910402602001604051908101604052809291908181526020018280546001816001161561010002031660029004801561107b5780601f106110505761010080835404028352916020019161107b565b820191906000526020600020905b81548152906001019060200180831161105e57829003601f168201915b505050505090806003018054600181600116156101000203166002900480601f0160208091040260200160405190810160405280929190818152602001828054600181600116156101000203166002900480156111195780601f106110ee57610100808354040283529160200191611119565b820191906000526020600020905b8154815290600101906020018083116110fc57829003601f168201915b505050505090806004015490806005018054600181600116156101000203166002900480601f0160208091040260200160405190810160405280929190818152602001828054600181600116156101000203166002900480156111bd5780601f10611192576101008083540402835291602001916111bd565b820191906000526020600020905b8154815290600101906020018083116111a057829003601f168201915b5050505050908060060160009054906101000a900460ff16908060060160019054906101000a900460ff16905088565b6060604051908101604052808481526020018315158152602001828152506005600060026000815480929190600101919050558152602001908152602001600020600082015181600001908051906020019061124a929190611b6e565b5060208201518160010160006101000a81548160ff0219169083151502179055506040820151816002019080519060200190611287929190611b6e565b50905050505050565b60025481565b60008090505b6001548110156113015781600460008381526020019081526020016000206000015414156112f45760016004600083815260200190815260200160002060060160016101000a81548160ff0219169083151502179055505b808060010191505061129c565b5050565b6101006040519081016040528060018054018152602001868152602001858152602001848152602001838152602001828152602001600015158152602001600015158152506004600060016000815480929190600101919050558152602001908152602001600020600082015181600001556020820151816001019080519060200190611393929190611b6e565b5060408201518160020190805190602001906113b0929190611b6e565b5060608201518160030190805190602001906113cd929190611b6e565b506080820151816004015560a08201518160050190805190602001906113f4929190611b6e565b5060c08201518160060160006101000a81548160ff02191690831515021790555060e08201518160060160016101000a81548160ff0219169083151502179055509050505050505050565b6005602052806000526040600020600091509050806000018054600181600116156101000203166002900480601f0160208091040260200160405190810160405280929190818152602001828054600181600116156101000203166002900480156114eb5780601f106114c0576101008083540402835291602001916114eb565b820191906000526020600020905b8154815290600101906020018083116114ce57829003601f168201915b5050505050908060010160009054906101000a900460ff1690806002018054600181600116156101000203166002900480601f01602080910402602001604051908101604052809291908181526020018280546001816001161561010002031660029004801561159c5780601f106115715761010080835404028352916020019161159c565b820191906000526020600020905b81548152906001019060200180831161157f57829003601f168201915b5050505050905083565b60008090505b6000548110156116115781600360008381526020019081526020016000206000015414156116045760016003600083815260200190815260200160002060070160006101000a81548160ff0219169083151502179055505b80806001019150506115ac565b5050565b60005481565b60015481565b60008090505b60015481101561168c57816004600083815260200190815260200160002060000154141561167f5760016004600083815260200190815260200160002060060160006101000a81548160ff0219169083151502179055505b8080600101915050611627565b5050565b610100604051908101604052806001600054018152602001878152602001868152602001858152602001848152602001838152602001828152602001600015158152506003600080600081548092919060010191905055815260200190815260200160002060008201518160000155602082015181600101908051906020019061171b929190611b6e565b506040820151816002019080519060200190611738929190611b6e565b506060820151816003019080519060200190611755929190611b6e565b506080820151816004019080519060200190611772929190611b6e565b5060a082015181600501908051906020019061178f929190611b6e565b5060c0820151816006015560e08201518160070160006101000a81548160ff021916908315150217905550905050505050505050565b60008090505b60015481101561181d57816004600083815260200190815260200160002060000154141561181057600260046000838152602001908152602001600020600401819055505b80806001019150506117cb565b5050565b6003602052806000526040600020600091509050806000015490806001018054600181600116156101000203166002900480601f0160208091040260200160405190810160405280929190818152602001828054600181600116156101000203166002900480156118d35780601f106118a8576101008083540402835291602001916118d3565b820191906000526020600020905b8154815290600101906020018083116118b657829003601f168201915b505050505090806002018054600181600116156101000203166002900480601f0160208091040260200160405190810160405280929190818152602001828054600181600116156101000203166002900480156119715780601f1061194657610100808354040283529160200191611971565b820191906000526020600020905b81548152906001019060200180831161195457829003601f168201915b505050505090806003018054600181600116156101000203166002900480601f016020809104026020016040519081016040528092919081815260200182805460018160011615610100020316600290048015611a0f5780601f106119e457610100808354040283529160200191611a0f565b820191906000526020600020905b8154815290600101906020018083116119f257829003601f168201915b505050505090806004018054600181600116156101000203166002900480601f016020809104026020016040519081016040528092919081815260200182805460018160011615610100020316600290048015611aad5780601f10611a8257610100808354040283529160200191611aad565b820191906000526020600020905b815481529060010190602001808311611a9057829003601f168201915b505050505090806005018054600181600116156101000203166002900480601f016020809104026020016040519081016040528092919081815260200182805460018160011615610100020316600290048015611b4b5780601f10611b2057610100808354040283529160200191611b4b565b820191906000526020600020905b815481529060010190602001808311611b2e57829003601f168201915b5050505050908060060154908060070160009054906101000a900460ff16905088565b828054600181600116156101000203166002900490600052602060002090601f016020900481019282601f10611baf57805160ff1916838001178555611bdd565b82800160010185558215611bdd579182015b82811115611bdc578251825591602001919060010190611bc1565b5b509050611bea9190611bee565b5090565b611c1091905b80821115611c0c576000816000905550600101611bf4565b5090565b9056fea165627a7a72305820c4984f887102974d1f921b5bf0356b7536fdb1856184471d7abd495038db9fa80029",
  "source": "// SPDX-License-Identifier: MIT\r\npragma solidity >=0.4.22 <0.9.0;\r\n\r\ncontract NotificationList {\r\n    \r\n    \r\n    uint public countNotif;\r\n    uint public countKupovine;\r\n    uint public countWallets;\r\n    \r\n    struct Notification //spisak obavestenja \r\n    {\r\n        uint id;\r\n        string naslov;\r\n        string sadrzaj;\r\n        string odKoga;\r\n        string zaKoga;\r\n        string datum; //ako je klik na kupi, danasnji datum, ako je rezervisi, ide odabrani datum za rezervaciju\r\n        uint kupljeno; //0 rezervacija, 1 kupovina pouzecem, 2 kupovina kriptovalutom \r\n        bool procitano;\r\n    }\r\n    \r\n    struct Kupovina{ //moje kupovine \r\n        \r\n        uint id;\r\n        string usernameKupac;\r\n        string adOwner;\r\n        string adName;\r\n        uint kupljeno; //ako je kupljeno 1, ako je rezervisano 0, 2 kupljeno kriptovalutom\r\n        string datum;\r\n        bool ocenjeno;\r\n        bool komentarisano;\r\n    }\r\n    \r\n    struct Wallet {\r\n        string username;\r\n        bool imaWallet;\r\n        string publicKey;\r\n    }\r\n    \r\n    \r\n    mapping(uint => Notification) public obavestenja;\r\n    mapping(uint => Kupovina) public kupovine;\r\n    mapping(uint => Wallet) public wallets;\r\n    \r\n    function dodajObavestenje(string memory naslov, string memory sadrzaj,string memory odKoga,string memory zaKoga, string memory datum,uint kupljeno) public\r\n    {\r\n        obavestenja[countNotif++] = Notification(countNotif+1,naslov,sadrzaj,odKoga,zaKoga,datum,kupljeno,false);\r\n    }\r\n    \r\n    \r\n    function oznaciKaoProcitano(uint id) public\r\n    {\r\n        for(uint i=0;i<countNotif;i++)\r\n        {\r\n            if(obavestenja[i].id == id)\r\n            {\r\n             obavestenja[i].procitano=true;   \r\n            }\r\n        }\r\n    }\r\n    \r\n    function kupiRezervisi(string memory usernameKupac, string memory adOwner, string memory adName, uint kupljeno, string memory datum) public //dodaje i kupljene i rezervisane\r\n    {\r\n        kupovine[countKupovine++] = Kupovina(countKupovine+1,usernameKupac,adOwner,adName,kupljeno,datum,false,false);\r\n    }\r\n    \r\n    function prebaciRezervisanoUKupljeno(uint id) public // podrazumeva da se kupi kriptovalutom\r\n    {\r\n        for(uint i=0;i<countKupovine;i++)\r\n        {\r\n            if(kupovine[i].id == id)\r\n            kupovine[i].kupljeno =2;\r\n        }\r\n    }\r\n\r\n    function prebaciUOcenjeno(uint id) public\r\n    {\r\n        for(uint i=0;i<countKupovine;i++)\r\n        {\r\n            if(kupovine[i].id == id)\r\n            kupovine[i].ocenjeno =true;\r\n        }\r\n    }\r\n\r\n    function prebaciUKomentarisano(uint id) public\r\n    {\r\n        for(uint i=0;i<countKupovine;i++)\r\n        {\r\n            if(kupovine[i].id == id)\r\n            kupovine[i].komentarisano =true;\r\n        }\r\n    }\r\n\r\n    \r\n    function createWallet(string memory username, bool imaWallet,string memory publicKey) public //proveravamo da li moze prodavac da stavi rezervaciju i kupovinu kriptovalutom\r\n    {\r\n        wallets[countWallets++] = Wallet(username,imaWallet,publicKey);\r\n    }\r\n    \r\n    \r\n    /*\r\n    u modelu napraviti funkciju koja pri svakom logovanju proverava da li je datum rezervacije danasnji datum, ako jeste,\r\n    skida novac sa racuna automatski i prebacuje u kupljeno\r\n    \r\n    */\r\n    \r\n}",
  "sourcePath": "C:/Users/Korisnik/Desktop/PredTest/TechLab/App/webApp/kotarica/contracts/Notifications.sol",
  "compiler": {
    "name": "solc",
    "version": "0.5.0+commit.1d4f565a.Emscripten.clang"
  },
  "schemaVersion": "3.0.1",
  "updatedAt": "2021-05-20T12:25:44.707Z",
  "devdoc": {
    "methods": {}
  },
  "userdoc": {
    "methods": {}
  }
}