{
  "contractName": "UserCrud",
  "abi": [
    {
      "constant": true,
      "inputs": [
        {
          "name": "",
          "type": "uint256"
        }
      ],
      "name": "korisnici",
      "outputs": [
        {
          "name": "id",
          "type": "uint256"
        },
        {
          "name": "userName",
          "type": "string"
        },
        {
          "name": "password",
          "type": "bytes32"
        },
        {
          "name": "firstName",
          "type": "string"
        },
        {
          "name": "lastName",
          "type": "string"
        },
        {
          "name": "mail",
          "type": "string"
        },
        {
          "name": "mobile",
          "type": "string"
        },
        {
          "name": "adresa",
          "type": "string"
        }
      ],
      "payable": false,
      "stateMutability": "view",
      "type": "function",
      "signature": "0x1c99eff2"
    },
    {
      "constant": true,
      "inputs": [
        {
          "name": "",
          "type": "uint256"
        }
      ],
      "name": "users",
      "outputs": [
        {
          "name": "id",
          "type": "uint256"
        },
        {
          "name": "userName",
          "type": "string"
        },
        {
          "name": "password",
          "type": "bytes32"
        },
        {
          "name": "firstName",
          "type": "string"
        },
        {
          "name": "lastName",
          "type": "string"
        },
        {
          "name": "mail",
          "type": "string"
        },
        {
          "name": "mobile",
          "type": "string"
        },
        {
          "name": "adresa",
          "type": "string"
        }
      ],
      "payable": false,
      "stateMutability": "view",
      "type": "function",
      "signature": "0x365b98b2"
    },
    {
      "constant": true,
      "inputs": [],
      "name": "nextId",
      "outputs": [
        {
          "name": "",
          "type": "uint256"
        }
      ],
      "payable": false,
      "stateMutability": "view",
      "type": "function",
      "signature": "0x61b8ce8c"
    },
    {
      "constant": true,
      "inputs": [
        {
          "name": "",
          "type": "uint256"
        }
      ],
      "name": "pics",
      "outputs": [
        {
          "name": "username",
          "type": "string"
        },
        {
          "name": "hash",
          "type": "string"
        }
      ],
      "payable": false,
      "stateMutability": "view",
      "type": "function",
      "signature": "0x81296869"
    },
    {
      "constant": true,
      "inputs": [],
      "name": "picCount",
      "outputs": [
        {
          "name": "",
          "type": "uint256"
        }
      ],
      "payable": false,
      "stateMutability": "view",
      "type": "function",
      "signature": "0xb318a312"
    },
    {
      "inputs": [],
      "payable": false,
      "stateMutability": "nonpayable",
      "type": "constructor",
      "signature": "constructor"
    },
    {
      "anonymous": false,
      "inputs": [
        {
          "indexed": false,
          "name": "idUsera",
          "type": "uint256"
        }
      ],
      "name": "postojeciKorisnik",
      "type": "event",
      "signature": "0x2a496c0b7a162ac5c5d1e690e402346d0db0d24ae868c59c80ee07a81e6bf735"
    },
    {
      "constant": true,
      "inputs": [
        {
          "name": "password",
          "type": "string"
        }
      ],
      "name": "encPass",
      "outputs": [
        {
          "name": "",
          "type": "bytes32"
        }
      ],
      "payable": false,
      "stateMutability": "pure",
      "type": "function",
      "signature": "0x5d9f3850"
    },
    {
      "constant": false,
      "inputs": [
        {
          "name": "userName",
          "type": "string"
        },
        {
          "name": "password",
          "type": "string"
        },
        {
          "name": "firstName",
          "type": "string"
        },
        {
          "name": "lastName",
          "type": "string"
        },
        {
          "name": "mail",
          "type": "string"
        },
        {
          "name": "mobile",
          "type": "string"
        },
        {
          "name": "adresa",
          "type": "string"
        }
      ],
      "name": "create",
      "outputs": [],
      "payable": false,
      "stateMutability": "nonpayable",
      "type": "function",
      "signature": "0x08c4e0b4"
    },
    {
      "constant": false,
      "inputs": [
        {
          "name": "username",
          "type": "string"
        },
        {
          "name": "hash",
          "type": "string"
        }
      ],
      "name": "addPic",
      "outputs": [],
      "payable": false,
      "stateMutability": "nonpayable",
      "type": "function",
      "signature": "0xea1baa1a"
    },
    {
      "constant": false,
      "inputs": [
        {
          "name": "oldUsername",
          "type": "string"
        },
        {
          "name": "newPass",
          "type": "string"
        },
        {
          "name": "firstName",
          "type": "string"
        },
        {
          "name": "lastName",
          "type": "string"
        },
        {
          "name": "newMob",
          "type": "string"
        },
        {
          "name": "email",
          "type": "string"
        },
        {
          "name": "newAdrr1",
          "type": "string"
        }
      ],
      "name": "updateUser",
      "outputs": [],
      "payable": false,
      "stateMutability": "nonpayable",
      "type": "function",
      "signature": "0xad44e42c"
    },
    {
      "constant": true,
      "inputs": [
        {
          "name": "username",
          "type": "string"
        }
      ],
      "name": "isUserExists",
      "outputs": [
        {
          "name": "",
          "type": "bool"
        }
      ],
      "payable": false,
      "stateMutability": "view",
      "type": "function",
      "signature": "0x3eecc9b9"
    },
    {
      "constant": true,
      "inputs": [
        {
          "name": "userName",
          "type": "string"
        },
        {
          "name": "password",
          "type": "string"
        }
      ],
      "name": "checkUser",
      "outputs": [
        {
          "name": "",
          "type": "string"
        }
      ],
      "payable": false,
      "stateMutability": "view",
      "type": "function",
      "signature": "0xb51c0b65"
    },
    {
      "constant": false,
      "inputs": [
        {
          "name": "i",
          "type": "uint256"
        }
      ],
      "name": "deleteUser",
      "outputs": [],
      "payable": false,
      "stateMutability": "nonpayable",
      "type": "function",
      "signature": "0x38f14845"
    }
  ],
  "bytecode": "0x608060405260006001553480156200001657600080fd5b50620001aa6040805190810160405280600a81526020017f50657261506572696361000000000000000000000000000000000000000000008152506040805190810160405280600781526020017f70657261313233000000000000000000000000000000000000000000000000008152506040805190810160405280600581526020017f50657461720000000000000000000000000000000000000000000000000000008152506040805190810160405280600881526020017f506574726f7669630000000000000000000000000000000000000000000000008152506040805190810160405280600e81526020017f7065726140676d61696c2e636f6d0000000000000000000000000000000000008152506040805190810160405280600a81526020017f30363438393633313235000000000000000000000000000000000000000000008152506040805190810160405280602081526020017f416e6472696a65204a657672656d6f766963612031362c205a6c617469626f728152506200119d640100000000026401000000009004565b6200033d6040805190810160405280600981526020017f4d61726b6f4d61726500000000000000000000000000000000000000000000008152506040805190810160405280600781526020017f6d617265313233000000000000000000000000000000000000000000000000008152506040805190810160405280600581526020017f4d61726b6f0000000000000000000000000000000000000000000000000000008152506040805190810160405280600881526020017f4d61726b6f7669630000000000000000000000000000000000000000000000008152506040805190810160405280600f81526020017f6d61726b6f40676d61696c2e636f6d00000000000000000000000000000000008152506040805190810160405280600a81526020017f30363233333936363438000000000000000000000000000000000000000000008152506040805190810160405280601a81526020017f4472616769736520437665746b6f766963612032322c204e69730000000000008152506200119d640100000000026401000000009004565b620004d06040805190810160405280600a81526020017f416e67656c696e613233000000000000000000000000000000000000000000008152506040805190810160405280600781526020017f616e67656c3535000000000000000000000000000000000000000000000000008152506040805190810160405280600881526020017f416e67656c696e610000000000000000000000000000000000000000000000008152506040805190810160405280600581526020017f4d697369630000000000000000000000000000000000000000000000000000008152506040805190810160405280601481526020017f616e67656c696e61393740676d61696c2e636f6d0000000000000000000000008152506040805190810160405280600981526020017f30363631353230303600000000000000000000000000000000000000000000008152506040805190810160405280601981526020017f537270736b6968205275646172612033332c205672616e6a65000000000000008152506200119d640100000000026401000000009004565b620006636040805190810160405280600b81526020017f4d616764616c656e6137350000000000000000000000000000000000000000008152506040805190810160405280600781526020017f6d656769393735000000000000000000000000000000000000000000000000008152506040805190810160405280600981526020017f4d616764616c656e6100000000000000000000000000000000000000000000008152506040805190810160405280600981526020017f4e6f76616b6f76696300000000000000000000000000000000000000000000008152506040805190810160405280601181526020017f6d65676937353540676d61696c2e636f6d0000000000000000000000000000008152506040805190810160405280600a81526020017f30363432393835353336000000000000000000000000000000000000000000008152506040805190810160405280601681526020017f4d697465204b616c6963612033392c20536f6d626f72000000000000000000008152506200119d640100000000026401000000009004565b620007f66040805190810160405280600881526020017f43696b614d6973610000000000000000000000000000000000000000000000008152506040805190810160405280600781526020017f63696b61323233000000000000000000000000000000000000000000000000008152506040805190810160405280600781526020017f4d696f64726167000000000000000000000000000000000000000000000000008152506040805190810160405280600581526020017f4b6f6a69630000000000000000000000000000000000000000000000000000008152506040805190810160405280601281526020017f63696b616d69736140676d61696c2e636f6d00000000000000000000000000008152506040805190810160405280600a81526020017f30363431353032323536000000000000000000000000000000000000000000008152506040805190810160405280601481526020017f52756a616e736b6120372c2043616a6574696e610000000000000000000000008152506200119d640100000000026401000000009004565b620009896040805190810160405280600981526020017f53656365726c656d6100000000000000000000000000000000000000000000008152506040805190810160405280600981526020017f73616e64726131323300000000000000000000000000000000000000000000008152506040805190810160405280600681526020017f53616e64726100000000000000000000000000000000000000000000000000008152506040805190810160405280600681526020017f446a6f72696300000000000000000000000000000000000000000000000000008152506040805190810160405280601381526020017f73656365726c656d6140676d61696c2e636f6d000000000000000000000000008152506040805190810160405280600a81526020017f30363335353632333935000000000000000000000000000000000000000000008152506040805190810160405280601d81526020017f4472616769636520507261766963652034342c205a72656e6a616e696e0000008152506200119d640100000000026401000000009004565b62000b1c6040805190810160405280600e81526020017f4a61676f64696361426f626963610000000000000000000000000000000000008152506040805190810160405280600a81526020017f6a61676f646963613132000000000000000000000000000000000000000000008152506040805190810160405280600781526020017f4d69726a616e61000000000000000000000000000000000000000000000000008152506040805190810160405280600581526020017f4b6f7669630000000000000000000000000000000000000000000000000000008152506040805190810160405280601381526020017f6d6972616d69726b6140676d61696c2e636f6d000000000000000000000000008152506040805190810160405280600a81526020017f30363432333435353936000000000000000000000000000000000000000000008152506040805190810160405280601881526020017f4b7261646a6f72646a6576612033392c205672626f76616300000000000000008152506200119d640100000000026401000000009004565b62000caf6040805190810160405280600e81526020017f446164696c6a61536c6a69766b610000000000000000000000000000000000008152506040805190810160405280600981526020017f736c6a69766b61333400000000000000000000000000000000000000000000008152506040805190810160405280600681526020017f4e617461736100000000000000000000000000000000000000000000000000008152506040805190810160405280600581526020017f4c617a69630000000000000000000000000000000000000000000000000000008152506040805190810160405280601181526020017f6e6174616c617a40676d61696c2e636f6d0000000000000000000000000000008152506040805190810160405280600a81526020017f30363532323435383936000000000000000000000000000000000000000000008152506040805190810160405280601b81526020017f4d6c6164656e612053696d6963612031332c204b7275736576616300000000008152506200119d640100000000026401000000009004565b62000e426040805190810160405280600a81526020017f4376656361726b613737000000000000000000000000000000000000000000008152506040805190810160405280600881526020017f63766563653737370000000000000000000000000000000000000000000000008152506040805190810160405280600581526020017f4976616e610000000000000000000000000000000000000000000000000000008152506040805190810160405280600581526020017f4a6f6b69630000000000000000000000000000000000000000000000000000008152506040805190810160405280600e81526020017f69766b6140676d61696c2e636f6d0000000000000000000000000000000000008152506040805190810160405280600a81526020017f30363135363332343438000000000000000000000000000000000000000000008152506040805190810160405280601881526020017f426172746f6b2042656c652031342c205372626f6272616e00000000000000008152506200119d640100000000026401000000009004565b62000ffc6040805190810160405280600b81526020017f42757265427572656e63650000000000000000000000000000000000000000008152506040805190810160405280600881526020017f62757261643132330000000000000000000000000000000000000000000000008152506040805190810160405280600681526020017f4272616e6b6f00000000000000000000000000000000000000000000000000008152506040805190810160405280600581526020017f546f6d69630000000000000000000000000000000000000000000000000000008152506040805190810160405280600f81526020017f6272616e6540676d61696c2e636f6d00000000000000000000000000000000008152506040805190810160405280600a81526020017f3036393233343838363100000000000000000000000000000000000000000000815250606060405190810160405280602281526020017f4e616465204d696c7574696e6f7669632033362c20416c656b73616e64726f7681526020017f61630000000000000000000000000000000000000000000000000000000000008152506200119d640100000000026401000000009004565b6200118f6040805190810160405280600b81526020017f5063656c6963614d616a610000000000000000000000000000000000000000008152506040805190810160405280600781526020017f627a627a333333000000000000000000000000000000000000000000000000008152506040805190810160405280600681526020017f4d6172696e6100000000000000000000000000000000000000000000000000008152506040805190810160405280600581526020017f546f7369630000000000000000000000000000000000000000000000000000008152506040805190810160405280600e81526020017f6d61726140676d61696c2e636f6d0000000000000000000000000000000000008152506040805190810160405280600a81526020017f30363631343933333635000000000000000000000000000000000000000000008152506040805190810160405280601781526020017f5275646e69636b612031332c204b726167756a657661630000000000000000008152506200119d640100000000026401000000009004565b600b60018190555062001601565b6001600081548092919060010191905055506000620011cb8762001437640100000000026401000000009004565b90506101006040519081016040528060015481526020018981526020018281526020018781526020018681526020018581526020018481526020018381525060046000600180540381526020019081526020016000206000820151816000015560208201518160010190805190602001906200124992919062001552565b506040820151816002015560608201518160030190805190602001906200127292919062001552565b5060808201518160040190805190602001906200129192919062001552565b5060a0820151816005019080519060200190620012b092919062001552565b5060c0820151816006019080519060200190620012cf92919062001552565b5060e0820151816007019080519060200190620012ee92919062001552565b5090505060006101006040519081016040528060015481526020018a815260200183815260200188815260200187815260200186815260200185815260200184815250908060018154018082558091505090600182039060005260206000209060080201600090919290919091506000820151816000015560208201518160010190805190602001906200138492919062001552565b50604082015181600201556060820151816003019080519060200190620013ad92919062001552565b506080820151816004019080519060200190620013cc92919062001552565b5060a0820151816005019080519060200190620013eb92919062001552565b5060c08201518160060190805190602001906200140a92919062001552565b5060e08201518160070190805190602001906200142992919062001552565b505050505050505050505050565b60006002826040516020018082805190602001908083835b6020831015156200147657805182526020820191506020810190506020830392506200144f565b6001836020036101000a0380198251168184511680821785525050505050509050019150506040516020818303038152906040526040518082805190602001908083835b602083101515620014e15780518252602082019150602081019050602083039250620014ba565b6001836020036101000a038019825116818451168082178552505050505050905001915050602060405180830381855afa15801562001524573d6000803e3d6000fd5b5050506040513d60208110156200153a57600080fd5b81019080805190602001909291905050509050919050565b828054600181600116156101000203166002900490600052602060002090601f016020900481019282601f106200159557805160ff1916838001178555620015c6565b82800160010185558215620015c6579182015b82811115620015c5578251825591602001919060010190620015a8565b5b509050620015d59190620015d9565b5090565b620015fe91905b80821115620015fa576000816000905550600101620015e0565b5090565b90565b612e9680620016116000396000f3fe6080604052600436106100ba576000357c0100000000000000000000000000000000000000000000000000000000900463ffffffff16806308c4e0b4146100bf5780631c99eff214610511578063365b98b2146107ef57806338f1484514610acd5780633eecc9b914610b085780635d9f385014610be857806361b8ce8c14610cc45780638129686914610cef578063ad44e42c14610e0f578063b318a31214611261578063b51c0b651461128c578063ea1baa1a14611464575b600080fd5b3480156100cb57600080fd5b5061050f600480360360e08110156100e257600080fd5b81019080803590602001906401000000008111156100ff57600080fd5b82018360208201111561011157600080fd5b8035906020019184600183028401116401000000008311171561013357600080fd5b91908080601f016020809104026020016040519081016040528093929190818152602001838380828437600081840152601f19601f8201169050808301925050505050505091929192908035906020019064010000000081111561019657600080fd5b8201836020820111156101a857600080fd5b803590602001918460018302840111640100000000831117156101ca57600080fd5b91908080601f016020809104026020016040519081016040528093929190818152602001838380828437600081840152601f19601f8201169050808301925050505050505091929192908035906020019064010000000081111561022d57600080fd5b82018360208201111561023f57600080fd5b8035906020019184600183028401116401000000008311171561026157600080fd5b91908080601f016020809104026020016040519081016040528093929190818152602001838380828437600081840152601f19601f820116905080830192505050505050509192919290803590602001906401000000008111156102c457600080fd5b8201836020820111156102d657600080fd5b803590602001918460018302840111640100000000831117156102f857600080fd5b91908080601f016020809104026020016040519081016040528093929190818152602001838380828437600081840152601f19601f8201169050808301925050505050505091929192908035906020019064010000000081111561035b57600080fd5b82018360208201111561036d57600080fd5b8035906020019184600183028401116401000000008311171561038f57600080fd5b91908080601f016020809104026020016040519081016040528093929190818152602001838380828437600081840152601f19601f820116905080830192505050505050509192919290803590602001906401000000008111156103f257600080fd5b82018360208201111561040457600080fd5b8035906020019184600183028401116401000000008311171561042657600080fd5b91908080601f016020809104026020016040519081016040528093929190818152602001838380828437600081840152601f19601f8201169050808301925050505050505091929192908035906020019064010000000081111561048957600080fd5b82018360208201111561049b57600080fd5b803590602001918460018302840111640100000000831117156104bd57600080fd5b91908080601f016020809104026020016040519081016040528093929190818152602001838380828437600081840152601f19601f8201169050808301925050505050505091929192905050506115c3565b005b34801561051d57600080fd5b5061054a6004803603602081101561053457600080fd5b8101908080359060200190929190505050611834565b6040518089815260200180602001888152602001806020018060200180602001806020018060200187810387528e818151815260200191508051906020019080838360005b838110156105aa57808201518184015260208101905061058f565b50505050905090810190601f1680156105d75780820380516001836020036101000a031916815260200191505b5087810386528c818151815260200191508051906020019080838360005b838110156106105780820151818401526020810190506105f5565b50505050905090810190601f16801561063d5780820380516001836020036101000a031916815260200191505b5087810385528b818151815260200191508051906020019080838360005b8381101561067657808201518184015260208101905061065b565b50505050905090810190601f1680156106a35780820380516001836020036101000a031916815260200191505b5087810384528a818151815260200191508051906020019080838360005b838110156106dc5780820151818401526020810190506106c1565b50505050905090810190601f1680156107095780820380516001836020036101000a031916815260200191505b50878103835289818151815260200191508051906020019080838360005b83811015610742578082015181840152602081019050610727565b50505050905090810190601f16801561076f5780820380516001836020036101000a031916815260200191505b50878103825288818151815260200191508051906020019080838360005b838110156107a857808201518184015260208101905061078d565b50505050905090810190601f1680156107d55780820380516001836020036101000a031916815260200191505b509e50505050505050505050505050505060405180910390f35b3480156107fb57600080fd5b506108286004803603602081101561081257600080fd5b8101908080359060200190929190505050611c0c565b6040518089815260200180602001888152602001806020018060200180602001806020018060200187810387528e818151815260200191508051906020019080838360005b8381101561088857808201518184015260208101905061086d565b50505050905090810190601f1680156108b55780820380516001836020036101000a031916815260200191505b5087810386528c818151815260200191508051906020019080838360005b838110156108ee5780820151818401526020810190506108d3565b50505050905090810190601f16801561091b5780820380516001836020036101000a031916815260200191505b5087810385528b818151815260200191508051906020019080838360005b83811015610954578082015181840152602081019050610939565b50505050905090810190601f1680156109815780820380516001836020036101000a031916815260200191505b5087810384528a818151815260200191508051906020019080838360005b838110156109ba57808201518184015260208101905061099f565b50505050905090810190601f1680156109e75780820380516001836020036101000a031916815260200191505b50878103835289818151815260200191508051906020019080838360005b83811015610a20578082015181840152602081019050610a05565b50505050905090810190601f168015610a4d5780820380516001836020036101000a031916815260200191505b50878103825288818151815260200191508051906020019080838360005b83811015610a86578082015181840152602081019050610a6b565b50505050905090810190601f168015610ab35780820380516001836020036101000a031916815260200191505b509e50505050505050505050505050505060405180910390f35b348015610ad957600080fd5b50610b0660048036036020811015610af057600080fd5b8101908080359060200190929190505050611ff3565b005b348015610b1457600080fd5b50610bce60048036036020811015610b2b57600080fd5b8101908080359060200190640100000000811115610b4857600080fd5b820183602082011115610b5a57600080fd5b80359060200191846001830284011164010000000083111715610b7c57600080fd5b91908080601f016020809104026020016040519081016040528093929190818152602001838380828437600081840152601f19601f820116905080830192505050505050509192919290505050612086565b604051808215151515815260200191505060405180910390f35b348015610bf457600080fd5b50610cae60048036036020811015610c0b57600080fd5b8101908080359060200190640100000000811115610c2857600080fd5b820183602082011115610c3a57600080fd5b80359060200191846001830284011164010000000083111715610c5c57600080fd5b91908080601f016020809104026020016040519081016040528093929190818152602001838380828437600081840152601f19601f8201169050808301925050505050505091929192905050506121cd565b6040518082815260200191505060405180910390f35b348015610cd057600080fd5b50610cd96122e2565b6040518082815260200191505060405180910390f35b348015610cfb57600080fd5b50610d2860048036036020811015610d1257600080fd5b81019080803590602001909291905050506122e8565b604051808060200180602001838103835285818151815260200191508051906020019080838360005b83811015610d6c578082015181840152602081019050610d51565b50505050905090810190601f168015610d995780820380516001836020036101000a031916815260200191505b50838103825284818151815260200191508051906020019080838360005b83811015610dd2578082015181840152602081019050610db7565b50505050905090810190601f168015610dff5780820380516001836020036101000a031916815260200191505b5094505050505060405180910390f35b348015610e1b57600080fd5b5061125f600480360360e0811015610e3257600080fd5b8101908080359060200190640100000000811115610e4f57600080fd5b820183602082011115610e6157600080fd5b80359060200191846001830284011164010000000083111715610e8357600080fd5b91908080601f016020809104026020016040519081016040528093929190818152602001838380828437600081840152601f19601f82011690508083019250505050505050919291929080359060200190640100000000811115610ee657600080fd5b820183602082011115610ef857600080fd5b80359060200191846001830284011164010000000083111715610f1a57600080fd5b91908080601f016020809104026020016040519081016040528093929190818152602001838380828437600081840152601f19601f82011690508083019250505050505050919291929080359060200190640100000000811115610f7d57600080fd5b820183602082011115610f8f57600080fd5b80359060200191846001830284011164010000000083111715610fb157600080fd5b91908080601f016020809104026020016040519081016040528093929190818152602001838380828437600081840152601f19601f8201169050808301925050505050505091929192908035906020019064010000000081111561101457600080fd5b82018360208201111561102657600080fd5b8035906020019184600183028401116401000000008311171561104857600080fd5b91908080601f016020809104026020016040519081016040528093929190818152602001838380828437600081840152601f19601f820116905080830192505050505050509192919290803590602001906401000000008111156110ab57600080fd5b8201836020820111156110bd57600080fd5b803590602001918460018302840111640100000000831117156110df57600080fd5b91908080601f016020809104026020016040519081016040528093929190818152602001838380828437600081840152601f19601f8201169050808301925050505050505091929192908035906020019064010000000081111561114257600080fd5b82018360208201111561115457600080fd5b8035906020019184600183028401116401000000008311171561117657600080fd5b91908080601f016020809104026020016040519081016040528093929190818152602001838380828437600081840152601f19601f820116905080830192505050505050509192919290803590602001906401000000008111156111d957600080fd5b8201836020820111156111eb57600080fd5b8035906020019184600183028401116401000000008311171561120d57600080fd5b91908080601f016020809104026020016040519081016040528093929190818152602001838380828437600081840152601f19601f82011690508083019250505050505050919291929050505061243c565b005b34801561126d57600080fd5b50611276612a28565b6040518082815260200191505060405180910390f35b34801561129857600080fd5b506113e9600480360360408110156112af57600080fd5b81019080803590602001906401000000008111156112cc57600080fd5b8201836020820111156112de57600080fd5b8035906020019184600183028401116401000000008311171561130057600080fd5b91908080601f016020809104026020016040519081016040528093929190818152602001838380828437600081840152601f19601f8201169050808301925050505050505091929192908035906020019064010000000081111561136357600080fd5b82018360208201111561137557600080fd5b8035906020019184600183028401116401000000008311171561139757600080fd5b91908080601f016020809104026020016040519081016040528093929190818152602001838380828437600081840152601f19601f820116905080830192505050505050509192919290505050612a2e565b6040518080602001828103825283818151815260200191508051906020019080838360005b8381101561142957808201518184015260208101905061140e565b50505050905090810190601f1680156114565780820380516001836020036101000a031916815260200191505b509250505060405180910390f35b34801561147057600080fd5b506115c16004803603604081101561148757600080fd5b81019080803590602001906401000000008111156114a457600080fd5b8201836020820111156114b657600080fd5b803590602001918460018302840111640100000000831117156114d857600080fd5b91908080601f016020809104026020016040519081016040528093929190818152602001838380828437600081840152601f19601f8201169050808301925050505050505091929192908035906020019064010000000081111561153b57600080fd5b82018360208201111561154d57600080fd5b8035906020019184600183028401116401000000008311171561156f57600080fd5b91908080601f016020809104026020016040519081016040528093929190818152602001838380828437600081840152601f19601f820116905080830192505050505050509192919290505050612c84565b005b60016000815480929190600101919050555060006115e0876121cd565b905061010060405190810160405280600154815260200189815260200182815260200187815260200186815260200185815260200184815260200183815250600460006001805403815260200190815260200160002060008201518160000155602082015181600101908051906020019061165c929190612cfd565b50604082015181600201556060820151816003019080519060200190611683929190612cfd565b5060808201518160040190805190602001906116a0929190612cfd565b5060a08201518160050190805190602001906116bd929190612cfd565b5060c08201518160060190805190602001906116da929190612cfd565b5060e08201518160070190805190602001906116f7929190612cfd565b5090505060006101006040519081016040528060015481526020018a8152602001838152602001888152602001878152602001868152602001858152602001848152509080600181540180825580915050906001820390600052602060002090600802016000909192909190915060008201518160000155602082015181600101908051906020019061178b929190612cfd565b506040820151816002015560608201518160030190805190602001906117b2929190612cfd565b5060808201518160040190805190602001906117cf929190612cfd565b5060a08201518160050190805190602001906117ec929190612cfd565b5060c0820151816006019080519060200190611809929190612cfd565b5060e0820151816007019080519060200190611826929190612cfd565b505050505050505050505050565b6004602052806000526040600020600091509050806000015490806001018054600181600116156101000203166002900480601f0160208091040260200160405190810160405280929190818152602001828054600181600116156101000203166002900480156118e65780601f106118bb576101008083540402835291602001916118e6565b820191906000526020600020905b8154815290600101906020018083116118c957829003601f168201915b505050505090806002015490806003018054600181600116156101000203166002900480601f01602080910402602001604051908101604052809291908181526020018280546001816001161561010002031660029004801561198a5780601f1061195f5761010080835404028352916020019161198a565b820191906000526020600020905b81548152906001019060200180831161196d57829003601f168201915b505050505090806004018054600181600116156101000203166002900480601f016020809104026020016040519081016040528092919081815260200182805460018160011615610100020316600290048015611a285780601f106119fd57610100808354040283529160200191611a28565b820191906000526020600020905b815481529060010190602001808311611a0b57829003601f168201915b505050505090806005018054600181600116156101000203166002900480601f016020809104026020016040519081016040528092919081815260200182805460018160011615610100020316600290048015611ac65780601f10611a9b57610100808354040283529160200191611ac6565b820191906000526020600020905b815481529060010190602001808311611aa957829003601f168201915b505050505090806006018054600181600116156101000203166002900480601f016020809104026020016040519081016040528092919081815260200182805460018160011615610100020316600290048015611b645780601f10611b3957610100808354040283529160200191611b64565b820191906000526020600020905b815481529060010190602001808311611b4757829003601f168201915b505050505090806007018054600181600116156101000203166002900480601f016020809104026020016040519081016040528092919081815260200182805460018160011615610100020316600290048015611c025780601f10611bd757610100808354040283529160200191611c02565b820191906000526020600020905b815481529060010190602001808311611be557829003601f168201915b5050505050905088565b600081815481101515611c1b57fe5b9060005260206000209060080201600091509050806000015490806001018054600181600116156101000203166002900480601f016020809104026020016040519081016040528092919081815260200182805460018160011615610100020316600290048015611ccd5780601f10611ca257610100808354040283529160200191611ccd565b820191906000526020600020905b815481529060010190602001808311611cb057829003601f168201915b505050505090806002015490806003018054600181600116156101000203166002900480601f016020809104026020016040519081016040528092919081815260200182805460018160011615610100020316600290048015611d715780601f10611d4657610100808354040283529160200191611d71565b820191906000526020600020905b815481529060010190602001808311611d5457829003601f168201915b505050505090806004018054600181600116156101000203166002900480601f016020809104026020016040519081016040528092919081815260200182805460018160011615610100020316600290048015611e0f5780601f10611de457610100808354040283529160200191611e0f565b820191906000526020600020905b815481529060010190602001808311611df257829003601f168201915b505050505090806005018054600181600116156101000203166002900480601f016020809104026020016040519081016040528092919081815260200182805460018160011615610100020316600290048015611ead5780601f10611e8257610100808354040283529160200191611ead565b820191906000526020600020905b815481529060010190602001808311611e9057829003601f168201915b505050505090806006018054600181600116156101000203166002900480601f016020809104026020016040519081016040528092919081815260200182805460018160011615610100020316600290048015611f4b5780601f10611f2057610100808354040283529160200191611f4b565b820191906000526020600020905b815481529060010190602001808311611f2e57829003601f168201915b505050505090806007018054600181600116156101000203166002900480601f016020809104026020016040519081016040528092919081815260200182805460018160011615610100020316600290048015611fe95780601f10611fbe57610100808354040283529160200191611fe9565b820191906000526020600020905b815481529060010190602001808311611fcc57829003601f168201915b5050505050905088565b60008181548110151561200257fe5b90600052602060002090600802016000808201600090556001820160006120299190612d7d565b60028201600090556003820160006120419190612d7d565b6004820160006120519190612d7d565b6005820160006120619190612d7d565b6006820160006120719190612d7d565b6007820160006120819190612d7d565b505050565b600080600090505b6001548110156121c257826040516020018082805190602001908083835b6020831015156120d157805182526020820191506020810190506020830392506120ac565b6001836020036101000a0380198251168184511680821785525050505050509050019150506040516020818303038152906040528051906020012060008281548110151561211b57fe5b9060005260206000209060080201600101604051602001808280546001816001161561010002031660029004801561218a5780601f1061216857610100808354040283529182019161218a565b820191906000526020600020905b815481529060010190602001808311612176575b50509150506040516020818303038152906040528051906020012014156121b55760019150506121c8565b808060010191505061208e565b50600090505b919050565b60006002826040516020018082805190602001908083835b60208310151561220a57805182526020820191506020810190506020830392506121e5565b6001836020036101000a0380198251168184511680821785525050505050509050019150506040516020818303038152906040526040518082805190602001908083835b602083101515612273578051825260208201915060208101905060208303925061224e565b6001836020036101000a038019825116818451168082178552505050505050905001915050602060405180830381855afa1580156122b5573d6000803e3d6000fd5b5050506040513d60208110156122ca57600080fd5b81019080805190602001909291905050509050919050565b60015481565b6005602052806000526040600020600091509050806000018054600181600116156101000203166002900480601f0160208091040260200160405190810160405280929190818152602001828054600181600116156101000203166002900480156123945780601f1061236957610100808354040283529160200191612394565b820191906000526020600020905b81548152906001019060200180831161237757829003601f168201915b505050505090806001018054600181600116156101000203166002900480601f0160208091040260200160405190810160405280929190818152602001828054600181600116156101000203166002900480156124325780601f1061240757610100808354040283529160200191612432565b820191906000526020600020905b81548152906001019060200180831161241557829003601f168201915b5050505050905082565b60008090505b600080549050811015612a1e57876040516020018082805190602001908083835b6020831015156124885780518252602082019150602081019050602083039250612463565b6001836020036101000a038019825116818451168082178552505050505050905001915050604051602081830303815290604052805190602001206000828154811015156124d257fe5b906000526020600020906008020160010160405160200180828054600181600116156101000203166002900480156125415780601f1061251f576101008083540402835291820191612541565b820191906000526020600020905b81548152906001019060200180831161252d575b5050915050604051602081830303815290604052805190602001201415612a115760405160200180600001905060405160208183030381529060405280519060200120866040516020018082805190602001908083835b6020831015156125bd5780518252602082019150602081019050602083039250612598565b6001836020036101000a0380198251168184511680821785525050505050509050019150506040516020818303038152906040528051906020012014151561262b5785600460008381526020019081526020016000206003019080519060200190612629929190612dc5565b505b60405160200180600001905060405160208183030381529060405280519060200120856040516020018082805190602001908083835b6020831015156126865780518252602082019150602081019050602083039250612661565b6001836020036101000a038019825116818451168082178552505050505050905001915050604051602081830303815290604052805190602001201415156126f457846004600083815260200190815260200160002060040190805190602001906126f2929190612dc5565b505b60405160200180600001905060405160208183030381529060405280519060200120876040516020018082805190602001908083835b60208310151561274f578051825260208201915060208101905060208303925061272a565b6001836020036101000a038019825116818451168082178552505050505050905001915050604051602081830303815290604052805190602001201415156127b55761279a876121cd565b60046000838152602001908152602001600020600201819055505b60405160200180600001905060405160208183030381529060405280519060200120846040516020018082805190602001908083835b60208310151561281057805182526020820191506020810190506020830392506127eb565b6001836020036101000a0380198251168184511680821785525050505050509050019150506040516020818303038152906040528051906020012014151561287e578360046000838152602001908152602001600020600601908051906020019061287c929190612dc5565b505b60405160200180600001905060405160208183030381529060405280519060200120836040516020018082805190602001908083835b6020831015156128d957805182526020820191506020810190506020830392506128b4565b6001836020036101000a038019825116818451168082178552505050505050905001915050604051602081830303815290604052805190602001201415156129475782600460008381526020019081526020016000206005019080519060200190612945929190612dc5565b505b60405160200180600001905060405160208183030381529060405280519060200120826040516020018082805190602001908083835b6020831015156129a2578051825260208201915060208101905060208303925061297d565b6001836020036101000a03801982511681845116808217855250505050505090500191505060405160208183030381529060405280519060200120141515612a105781600460008381526020019081526020016000206007019080519060200190612a0e929190612dc5565b505b5b8080600101915050612442565b5050505050505050565b60035481565b606060008090505b600154811015612c4457836040516020018082805190602001908083835b602083101515612a795780518252602082019150602081019050602083039250612a54565b6001836020036101000a03801982511681845116808217855250505050505090500191505060405160208183030381529060405280519060200120600460008381526020019081526020016000206001016040516020018082805460018160011615610100020316600290048015612b285780601f10612b06576101008083540402835291820191612b28565b820191906000526020600020905b815481529060010190602001808311612b14575b5050915050604051602081830303815290604052805190602001201415612c3757612b52836121cd565b6040516020018082815260200191505060405160208183030381529060405280519060200120600460008381526020019081526020016000206002015460405160200180828152602001915050604051602081830303815290604052805190602001201415612bf9576040805190810160405280601781526020017f506f73746f6a692069207461636e61206c6f7a696e6b61000000000000000000815250915050612c7e565b6040805190810160405280600f81526020017f4e657461636e61206c6f7a696e6b610000000000000000000000000000000000815250915050612c7e565b8080600101915050612a36565b506040805190810160405280600a81526020017f4e6520706f73746f6a690000000000000000000000000000000000000000000081525090505b92915050565b60408051908101604052808381526020018281525060056000600360008154809291906001019190505581526020019081526020016000206000820151816000019080519060200190612cd8929190612cfd565b506020820151816001019080519060200190612cf5929190612cfd565b509050505050565b828054600181600116156101000203166002900490600052602060002090601f016020900481019282601f10612d3e57805160ff1916838001178555612d6c565b82800160010185558215612d6c579182015b82811115612d6b578251825591602001919060010190612d50565b5b509050612d799190612e45565b5090565b50805460018160011615610100020316600290046000825580601f10612da35750612dc2565b601f016020900490600052602060002090810190612dc19190612e45565b5b50565b828054600181600116156101000203166002900490600052602060002090601f016020900481019282601f10612e0657805160ff1916838001178555612e34565b82800160010185558215612e34579182015b82811115612e33578251825591602001919060010190612e18565b5b509050612e419190612e45565b5090565b612e6791905b80821115612e63576000816000905550600101612e4b565b5090565b9056fea165627a7a7230582015c62add43a2929ecac8c34ada7d93f536243b80acbf451d958b4beeffdf15c60029",
  "source": "// SPDX-License-Identifier: MIT\r\npragma solidity >=0.4.22 <0.9.0;\r\n\r\ncontract UserCrud{\r\n\r\n    struct User{\r\n\r\n        uint id;\r\n        string userName;\r\n        bytes32 password;\r\n        string firstName;\r\n        string lastName;\r\n        string mail;\r\n        string mobile;\r\n        string adresa;\r\n    }\r\n    \r\n    struct UserPic{\r\n        string username;\r\n        string hash;\r\n    }\r\n\r\n    User[] public users;\r\n    uint public nextId=0;\r\n    uint[] pom;\r\n    event postojeciKorisnik(uint idUsera);\r\n    uint public picCount;\r\n    mapping(uint => User) public korisnici;\r\n    mapping(uint => UserPic) public pics;\r\n\r\n    function encPass(string memory password) public pure returns(bytes32)\r\n    {\r\n        return sha256(abi.encodePacked(password));\r\n    }\r\n\r\n\r\n    //dodavanje korisnika\r\n    function create(string memory userName, string memory password, string memory firstName, string memory lastName, string memory mail, string memory mobile, string memory\r\n        adresa) public\r\n    {\r\n        nextId++;\r\n        bytes32 pass = encPass(password);\r\n        korisnici[nextId-1] = User(nextId,userName,pass,firstName,lastName,mail,mobile,adresa);\r\n        //nextId++;\r\n        users.push(User(nextId,userName,pass,firstName,lastName,mail,mobile,adresa));\r\n    }\r\n\r\n\r\n    constructor() public \r\n    {\r\n    \r\n    \r\n     create(\"PeraPerica\", \"pera123\", \"Petar\", \"Petrovic\", \"pera@gmail.com\", \"0648963125\", \"Andrije Jevremovica 16, Zlatibor\");\r\n     create(\"MarkoMare\", \"mare123\", \"Marko\", \"Markovic\", \"marko@gmail.com\", \"0623396648\", \"Dragise Cvetkovica 22, Nis\");\r\n     create(\"Angelina23\", \"angel55\", \"Angelina\", \"Misic\", \"angelina97@gmail.com\",\"066152006\",\"Srpskih Rudara 33, Vranje\");\r\n     create(\"Magdalena75\", \"megi975\", \"Magdalena\", \"Novakovic\", \"megi755@gmail.com\",\"0642985536\", \"Mite Kalica 39, Sombor\");\r\n     create(\"CikaMisa\", \"cika223\", \"Miodrag\",\"Kojic\", \"cikamisa@gmail.com\", \"0641502256\", \"Rujanska 7, Cajetina\");\r\n     create(\"Secerlema\", \"sandra123\", \"Sandra\", \"Djoric\", \"secerlema@gmail.com\", \"0635562395\", \"Dragice Pravice 44, Zrenjanin\");\r\n     create(\"JagodicaBobica\", \"jagodica12\", \"Mirjana\", \"Kovic\", \"miramirka@gmail.com\",\"0642345596\", \"Kradjordjeva 39, Vrbovac\");\r\n     create(\"DadiljaSljivka\", \"sljivka34\", \"Natasa\", \"Lazic\", \"natalaz@gmail.com\", \"0652245896\", \"Mladena Simica 13, Krusevac\");\r\n     create(\"Cvecarka77\", \"cvece777\", \"Ivana\", \"Jokic\", \"ivka@gmail.com\", \"0615632448\", \"Bartok Bele 14, Srbobran\");\r\n     create(\"BureBurence\", \"burad123\", \"Branko\", \"Tomic\", \"brane@gmail.com\", \"0692348861\", \"Nade Milutinovic 36, Aleksandrovac\");\r\n     create(\"PcelicaMaja\", \"bzbz333\", \"Marina\", \"Tosic\", \"mara@gmail.com\", \"0661493365\", \"Rudnicka 13, Kragujevac\");\r\n\r\n      nextId=11;\r\n     \r\n    }    \r\n\r\n    function addPic(string memory username, string memory hash) public\r\n    {\r\n        pics[picCount++] = UserPic(username,hash); \r\n    }\r\n\r\n    //izmena korisnika\r\n    function updateUser(string memory oldUsername, string memory newPass,string memory firstName, string memory lastName, string memory newMob,string memory email, string memory newAdrr1) public {\r\n        for(uint i=0; i < users.length; i++)\r\n        {\r\n            if(keccak256(abi.encodePacked(users[i].userName)) == keccak256(abi.encodePacked(oldUsername)))\r\n            {\r\n                if(keccak256(abi.encodePacked(firstName)) != keccak256(abi.encodePacked(\"\"))){\r\n                    //users[i].userName = newUserName;\r\n                    korisnici[i].firstName = firstName; }\r\n                    \r\n                if(keccak256(abi.encodePacked(lastName)) != keccak256(abi.encodePacked(\"\")))\r\n                    korisnici[i].lastName = lastName;\r\n\r\n                if(keccak256(abi.encodePacked(newPass)) != keccak256(abi.encodePacked(\"\")))\r\n                    korisnici[i].password = encPass(newPass);\r\n\r\n                if(keccak256(abi.encodePacked(newMob)) != keccak256(abi.encodePacked(\"\")))\r\n                    korisnici[i].mobile = newMob;\r\n                \r\n                if(keccak256(abi.encodePacked(email)) != keccak256(abi.encodePacked(\"\")))\r\n                    korisnici[i].mail = email;\r\n\r\n                if(keccak256(abi.encodePacked(newAdrr1)) != keccak256(abi.encodePacked(\"\")))\r\n                    korisnici[i].adresa = newAdrr1;\r\n\r\n                //if(keccak256(abi.encodePacked(newAdrr2)) != keccak256(abi.encodePacked(\"\")))\r\n                //users[i].adressaSlanje = newAdrr2;\r\n            }\r\n        }\r\n\r\n    }\r\n\r\n   \r\n    function isUserExists(string memory username) public view returns(bool) {\r\n        for(uint i = 0; i < nextId; i++) {\r\n            if(keccak256(abi.encodePacked(users[i].userName)) == keccak256(abi.encodePacked(username))) return true;\r\n//            if(users[i].userName == username) return true;\r\n        }\r\n        return false;\r\n    }\r\n   \r\n\r\n    function checkUser(string memory userName, string memory password) public view returns(string memory)\r\n   {\r\n       for(uint i=0;i<nextId;i++)\r\n       {\r\n           if(keccak256(abi.encodePacked(korisnici[i].userName)) == keccak256(abi.encodePacked(userName)))\r\n           {\r\n               if(keccak256(abi.encodePacked(korisnici[i].password)) == keccak256(abi.encodePacked(encPass(password))))\r\n               {\r\n                   return \"Postoji i tacna lozinka\";\r\n               }\r\n               else{\r\n                   return \"Netacna lozinka\";\r\n               }\r\n           }\r\n       }\r\n       \r\n       return \"Ne postoji\";\r\n   }\r\n\r\n\r\n    function deleteUser(uint i) public\r\n    {\r\n        //uint i = findUser(id);\r\n        delete users[i];\r\n    }\r\n\r\n   \r\n}\r\n",
  "sourcePath": "C:\\Users\\Korisnik\\Desktop\\PredTest\\TechLab\\App\\webApp\\kotarica\\contracts\\User.sol",
  "compiler": {
    "name": "solc",
    "version": "0.5.0+commit.1d4f565a.Emscripten.clang"
  },
  "schemaVersion": "3.0.1",
  "updatedAt": "2021-05-20T12:25:19.545Z",
  "devdoc": {
    "methods": {}
  },
  "userdoc": {
    "methods": {}
  }
}